:020000040802F0
:100000000000022041520308090402080D040208FE
:100010001104020815040208190402080000000077
:100020000000000000000000000000001D040208A5
:100030002104020800000000250402084904020807
:100040008952030889520308895203088952030818
:100050008952030889520308895203088952030808
:1000600089520308895203088952030889520308F8
:1000700089520308895203088952030889520308E8
:1000800089520308895203088952030889520308D8
:100090008952030889520308895203082904020877
:1000A00089520308895203088952030889520308B8
:1000B00089520308895203088952030889520308A8
:1000C0008952030889520308895203088952030898
:1000D0008952030889520308895203088952030888
:1000E0008952030889520308895203088952030878
:1000F0008952030889520308895203088952030868
:100100008952030889520308895203088952030857
:100110008952030889520308895203088952030847
:100120008952030889520308895203088952030837
:100130008952030889520308895203088952030827
:100140008952030889520308895203088952030817
:100150008952030889520308895203088952030807
:1001600089520308895203088952030889520308F7
:1001700089520308895203088952030889520308E7
:080180008952030889520308AB
:10018800044B05481B1A062B02D9044B03B1184728
:10019800704700BFB3040020B00400200000000036
:1001A80005490648091A891001EBD171491002D096
:1001B800034B03B118477047B0040020B004002077
:1001C8000000000010B5064C237843B9FFF7D8FFAC
:1001D800044B13B10448AFF300800123237010BD12
:1001E800B0040020000000000C60030808B5084BAC
:1001F8001BB108490848AFF300800848036813B9E1
:10020800BDE80840CCE7064B002BF9D09847F7E744
:1002180000000000B40400200C600308AC040020B7
:1002280000000000154B002B08BF134B9D46A3F59B
:10023800803A00218B460F461348144A121A15F0CB
:10024800C3FB0F4B002B00D098470E4B002B00D060
:1002580098470020002104000D000D48002802D016
:100268000C4815F075FC15F055FB2000290014F01A
:10027800D7FE15F03FFB00BF00000800000000009B
:100288000000000000000000B004002010C10020A1
:10029800595B0308655B0308364B37481A68002129
:1002A80042F001021A6099601A6822F0847222F4FE
:1002B80080321A6058601A6882B022F480221A606C
:1002C800D960009101911A6842F480321A601A4686
:1002D80003E0009BB3F5A06F09D0136803F4003363
:1002E8000193009B01330093019B002BF1D0214B1C
:1002F8001B6813F4003318BF01230193019B012BE2
:1003080005D01E4B4FF000629A6002B07047194B3F
:100318001B491A6C1B4842F080521A640A6842F45E
:1003280080420A609A689A609A6842F400429A6029
:100338009A6842F4A0529A6058601A6842F0807233
:100348001A601A4611680B4B8901FBD50E4A40F218
:10035800056111609A6822F003029A609A6842F077
:1003680002029A601A46936803F00C03082BFAD12C
:10037800C7E700BF003802401030002400ED00E05D
:100388000070004008544007003C02401848836849
:1003980003F00C03042B28D0082B09D0154B144A62
:1003A80015499268C2F303128A5CD3400B61704707
:1003B8004368416813F4800F436818BF0F4801F081
:1003C8003F020CBF0B49B0FBF2F1C3F3881308BF1F
:1003D800B1FBF2F101FB03F2054B5B68C3F3014388
:1003E80001335B00B2FBF3F3D9E7044BD7E700BF57
:1003F800003802400024F4000400002000127A00B3
:10040800704700BFFEE700BFFEE700BFFEE700BF82
:10041800FEE700BF704700BF704700BF704700BFCE
:1004280008B5202008F014FE00B908BD72B612F015
:100438003DFF62B62020BDE8084008F017BE00BFA7
:1004480000F03EB92DE9F04D8046D8E90423BCB050
:10045800D8E90645CDE90A23D8E90C23D0E90201F9
:10046800CDE90C45B8F80240CDE91223D8E9086770
:10047800B8F80020D8E90AAB0025CDE900450023EB
:10048800B8F80440CDE90801CDE90423D8F83800CC
:100498001B49002200230025CDE90223CDE90645AA
:1004A800CDE90E67CDE910AB14F0D8F914F084FB50
:1004B800CDE91401D8F83C0014F07EFBCDE9160113
:1004C800D8F840000E4914F0C9F914F075FBCDE9CD
:1004D800180113F0EBFA002369461A900E221CA8A3
:1004E8001B9300F027FE04464F2001F0C9F921466E
:1004F8001CA8012200F062FC3CB0BDE8F08D00BFF2
:100508000000C8C2F0B5044604F10C012AC9A2686B
:100518002148A3B0078820881390160EC2F307401D
:100528001696C2F3072617901896180EC3F30746B7
:10053800C9B2D2B2C3F3072E1992DBB26288159101
:100548001B901649E0691C96EDB20126CDF874E0BF
:100558001E9314921A951197129614F07FF914F0BD
:10056800CDFA1F90206A14F0C9FA0C492090606AED
:1005780014F074F914F0C2FA11A92190112201A8FB
:1005880000F08AFD3246014601A800F017FC4F2012
:1005980001F076F923B0F0BD180000200000C84231
:1005A800022900D8704710B5144602F1100188B02E
:1005B80000F038FE237CDA0605D400F09FFB0C4BD4
:1005C800187008B010BD0B4A23F010032374694655
:1005D80010880A2200F008FE08AB034401462246B0
:1005E80068460A24013103F8204C00F035FCE4E7A2
:1005F800CC04002018000020014B5880704700BF31
:10060800CC040020014B9880704700BFCC04002028
:1006180013F0D6B910B51D4B1D4C1B88A0681D4999
:10062800A8B0019314F01AF914F068FA1949029065
:10063800E06814F013F914F061FA16490390206980
:1006480014F00CF914F05AFA12490490606914F085
:1006580005F914F053FA0F490590A06914F0FEF853
:1006680014F04CFA0B490690E06914F0F7F814F00E
:1006780045FA01A90790072208A800F00DFD0222FB
:10068800014608A800F09AFB28B010BD1800002009
:10069800CC04002000007A4438B5044613F0CCFAA4
:1006A800014613F0D3FF0546204614F083F80146AF
:1006B800284614F0D3F814F021FA001B38BD00BF07
:1006C800024A936A0A339362704700BFCC04002041
:1006D800184B19491B68194AF0B5A1FB0313184EAA
:1006E8009B09013B00240121F027072583B05360B3
:1006F800084686F823709460156008F02BFB0121EA
:10070800042008F027FB0121082008F023FB4FF400
:1007180070450122032369460A488DF806408DF882
:10072800074000958DF804208DF8053008F06EF824
:1007380003B0F0BD14000020D34D621010E000E0BB
:1007480000ED00E0000C0240032817D8DFE800F0B5
:10075800110C07024FF40041094808F0D9B84FF4CA
:100768008041074808F0D4B84FF40051044808F015
:10077800CFB84FF48051024808F0CAB8704700BF9C
:10078800000C0240032817D8DFE800F0110C07021C
:100798004FF40041094808F0BDB84FF480410748BC
:1007A80008F0B8B84FF40051044808F0B3B84FF453
:1007B8008051024808F0AEB8704700BF000C0240F4
:1007C800032817D8DFE800F0110C07024FF40041A6
:1007D800094808F0A9B84FF48041074808F0A4B8C0
:1007E8004FF40051044808F09FB84FF48051024874
:1007F80008F09AB8704700BF000C024038B54FF4B3
:100808008051234808F086F84FF40051204808F03A
:1008180081F84FF480411E4808F07CF84FF40041FD
:100828001B4808F077F8002500BF0135284613F06B
:100838006FFB15A3D3E9002313F042FE04460028FA
:10084800F2D14FF48051124808F062F84FF4005189
:100858000F4808F05DF84FF480410D4808F058F84B
:100868004FF400410A4808F053F800BF013420460D
:1008780013F04EFB04A3D3E9002313F021FE002854
:10088800F3D1BCE7AFF300800000000080842E4164
:10089800000C024030B589B005F00EFE0D4D01F098
:1008A80023FE08AB00240C490C4A43F8044D2846A3
:1008B8000291019205A906AA00940594069405F0F0
:1008C80093FD284605F0D2FD284605F0D5FD09B070
:1008D80030BD00BF8082002045800208B92202088E
:1008E800014801F091BC00BF8082002030B51C4C4B
:1008F800257885B05DB1012D07D11A4D6B6863600D
:100908003BBB2B6ADB7C042B09D805B030BD1548EE
:1009180004F04CF801236560237005B030BD032353
:100928002846237004F02CF80F4806F0CBFF0190FE
:100938000E4806F0C7FF02900D4806F0C3FF04AB4F
:1009480002AA43F8040D01A9284605F03FFD05B0A9
:1009580030BD02232846237004F012F8D5E700BF03
:100968001005002080820020640811AC0000FFFF01
:10097800010011AC30B583B01D4C0190019BA268F9
:100988009B1AF92B2FD8E268019B19499B1A41F24F
:100998008732934222D8019B2269154D9B1AB3F5E1
:1009A800FA7F10D26269019B11499B1A4EF65F22A9
:1009B800934201D803B030BD019B4B6103B0BDE841
:1009C800304003F0DFBE019B2B6103F089FF2B78D9
:1009D800023B012BE6D9FFF789FFE3E7019BCB60D8
:1009E80007F0BAF8D7E7019BA36005F06BFBCAE7ED
:1009F80010050020F0B50121B1B0172008F0AAF9C0
:100A080001214FF4804008F0DDF900244FF4807391
:100A18000225032601A96B4801938DF809608DF81A
:100A280008508DF80A408DF80B4007F0EFFE20467D
:100A380007F0BCFF8F2301A96248019307F0E6FE87
:100A480021460B225F4807F073FF0B2201215D4806
:100A580007F06EFF29460B225A4807F069FF314616
:100A68000B22584807F064FF0B220721554807F06E
:100A78005FFF43F6034301A95348019307F0C6FEFD
:100A880021460B22504807F053FF0B2201214E4804
:100A980007F04EFF0B220A214B4807F049FF0B22B3
:100AA8001146494807F044FF0B220C21464807F03D
:100AB8003FFF0B220D21444807F03AFF3E2301A9CE
:100AC8004248019307F0A2FE0B2201213F4807F09C
:100AD8002FFF29460B223D4807F02AFF31460B22FB
:100AE8003A4807F025FF0B220421384807F020FF79
:100AF8000B220521354807F01BFF042301A93448C0
:100B0800019307F083FE0B222946314807F010FFB6
:100B180001214FF0606008F01DF90DF039FB0DF070
:100B280053FE0DF059FE0128FBD001A80DF03EFB45
:100B38004FF4007601224FF0007304254FF4803003
:100B48000024114601920B9622932A934FF40052E7
:100B58004FF480432B904FF400174FF480060DEBB1
:100B680005002F9308940C940F94129414941594E0
:100B78001694219426942794249729952C962D929F
:100B88000DF058FF134B18601B6803B9FEE72846A1
:100B98000CF0C0FC01A808F067F8029B0E4AA2FB03
:100BA80003235B09B3F1807F09D20C4A0C48013B4F
:100BB800F0250721536080F823509460116031B00C
:100BC800F0BD00BF000002400004024000080240DF
:100BD80000100240280500201F85EB5110E000E0BE
:100BE80000ED00E008B105F085BC704738B5054652
:100BF8000C46002105F06CF92846002105F06EF935
:100C08002846002105F066F92846002105F06AF912
:100C180000222846114605F06BF90D4800230246CC
:100C280052F8041B8C420FD00133042BF8D1094A27
:100C38001378013B137014B1204605F05BFC28467D
:100C4800BDE8384005F0A2B9002240F82320EEE7BD
:100C5800B8820020300500202DE9F041224F3B7872
:100C6800032B3CD80E460133012130463B7005F07A
:100C78002DF9142005F0E6FC054680B37B78466024
:100C88000133DBB200244FF001087B70014603708A
:100C980080F80180C46084600474304605F018F957
:100CA8001249304605F016F91149304605F01AF98F
:100CB80042461049304605F01BF90F4923460A46BB
:100CC80052F8040B30B10133042BF9D1002040B2A3
:100CD800BDE8F08141F8235040B2BDE8F081FF2023
:100CE80040B2BDE8F08100BF30050020F50E0208D3
:100CF800ED0B0208B90E0208B8820020054B00204F
:100D080003F1100153F8042B0AB1127C10438B42F3
:100D1800F8D17047B882002010B505F0BFFA0A4C28
:100D2800606028B145F6A232084904F091FD00B18F
:100D380010BDFF21606804F0F7FD05496060BDE85B
:100D4800104005F0D3B800BF30050020745C0308DC
:100D5800610C0208014B1860704700BFC882002070
:100D6800F8B50F460546FC680123284604B3618997
:100D7800B5F86E608E420A461AD3616801F042FEE9
:100D88000646284601F084FE9EB923686689FB6002
:100D980018460BB102F014FA204602F025F928464D
:100DA800314604F031FEFC6801232846002CDED1D0
:100DB800F8BD0136FCD1FC60F8BD00BF2DE9F04755
:100DC8001A4D8A46814617461FFA81F805F1100622
:100DD80055F8044B14B1237C1F4203D1B542F7D117
:100DE800BDE8F0871249606805F078F841460322AB
:100DF800002002F021F9BAF1000F01460ADD09F1DD
:100E0800FF320023486812F801EF00F803E00133CD
:100E18009A45F7D1E06830B102F0F0F921466068F0
:100E2800FFF79EFFDAE7E160F8E700BFB88200202D
:100E38003D0E020808B5C3680A462BB101461046A4
:100E4800FFF78EFF002008BD4378032BFAD1014637
:100E58001046FFF7CBFEF5E7F8B50E4604461349F2
:100E68005068174605F03AF8B1B20322002002F0A4
:100E7800E3F8002E014608DD621E00234C6812F8D4
:100E8800015FE55401339E42F8D1F86838B102F0A9
:100E9800B5F939467868BDE8F840FFF761BFF960F1
:100EA80078683946BDE8F840FFF75ABF3D0E02089A
:100EB80010B50B46A0B1C46834B101461846FFF717
:100EC8004FFF002040B210BD4278032A02D02046CE
:100ED80040B210BD01461846FFF788FE2046F1E7EC
:100EE8000846012105F000F9FB20EBE7F8B50746B5
:100EF8000D461646F2B11C4623B1304602F074F88E
:100F08002046F8BD4378012B23D0022B05D0084694
:100F1800118904F079FDBC60EFE78368002BEFD1FD
:100F2800144B518950681B683A469847304602F07E
:100F38005BF8E5E7C46803234370B4B128460E495B
:100F480004F0CCFF344628463946FFF709FF20460F
:100F5800F8BD0222074B42701B687189024670680F
:100F68009847304602F040F8CAE701462846FFF79E
:100F78003DFEC5E7C88200203D0E02082DE9F04F6E
:100F880006460F46934656EA070283B03ED00BF159
:100F9800FF381946DA17C246CDE90012002500E0ED
:100FA8004D4630463946DDE9002313F0EDFD092AA8
:100FB80002F15704DABF3032D4B2E4B230463946CF
:100FC800DDE900230AF8014F13F0DEFD06460F465F
:100FD80056EA070305F10109E2D17DB10BEB0502E1
:100FE8004146002300E0147818F8010F02F80109BF
:100FF8000133E81A834201F8014FF4DB4B46002223
:1010080048460BF8032003B0BDE8F08F002399464B
:10101800F5E700BF0028F0B536DB3BD04FF0000CF9
:101028004C1E2746002600E01E4690FBF2F502FB08
:101038001500092800F1570ED6BF30305FFA8EF040
:10104800C0B207F8010F731C2846002DECD1BCF183
:10105800000F16D01D46B01C2D234B5503466DB10D
:101068004E19002214F8017F96F800E006F801797D
:101078000132AF1ABA4284F800E0F3DB0022CA5406
:10108800F0BD35461846EAE70A2AC7D140424FF074
:10109800010CC5E70346F1E72DE9F04F002A89B0B6
:1010A80041DD4FF0000A904606460D1F544602F1F6
:1010B800FF396F464FF0300B55F8040F40BB8DF8E1
:1010C80001008DF800B04FF0300E01200AF1FF3119
:1010D8003144C7EB0A0C0DF10102002301E012F8BC
:1010E80001EB01F801EF013383420CEB020EF6DB52
:1010F8004C4504F10104B4BF2C230A23A04506F88B
:101108000E300EF1010AD7D1504609B0BDE8F08F74
:101118000A223946FFF77EFF002802DD9DF800E02D
:10112800D4E7D646E4E74FF0000A504609B0BDE8D8
:10113800F08F00BF2DE9F04F002A89B040DD002470
:1011480091460746A1F108062546A34602F1FF3A53
:10115800E846F6E9020150EA010328D14FF03003CE
:101168008DF800308DF801B04FF0300E0120611E6F
:101178003944C8EB040C0DF10102002301E012F818
:1011880001EB01F801EF013383420CEB0204F6DBBB
:10119800554505F10105B4BF2C230A23A9453B5544
:1011A80004F10104D5D1204609B0BDE8F08F0A2327
:1011B8004246FFF7E3FE0028EADD9DF800E0D6E7A7
:1011C8000024204609B0BDE8F08F00BF10B550EAF2
:1011D800010E02D0BDE81040D0E6144600233022AC
:1011E80022706370012010BD00B113E70B4610B4E4
:1011F8003022587010BC0A70012070474B1E002B1B
:101208000FDD014470B400220C460132013B11F895
:10121800015D067804F8016D9A4200F8015BF4DB81
:1012280070BC70470378433B0F2B0DD8DFE803F001
:101238001D0C220C300C3A0C0C424C0C0C560C0DAC
:101248000B7823F001030B7070474378652BF7D0B8
:101258004ED8312B00F08480622B40F09E8080783D
:1012680000EB80004000FFF7C7B94378722BEBD141
:1012780000F08EBF4378332B00F0898010B5044608
:101288004CD96C2B3ED0722B78D0632B6FD010BD0D
:101298004378312B52D0742B5FD0302BD4D1807847
:1012A80000F0B8BB4378722BCED10B7843F0100313
:1012B8000B7070474378312B4CD0742B47D0302BB0
:1012C800C2D1807800F09ABA4378652B31D0732B5D
:1012D800BAD10B7843F002030B7070474378312B77
:1012E8002FD0322B30D0302BAED1807800F0C0BD5B
:1012F800732B37D0742B4FD1807800EB80004000DF
:10130800FFF780B98378302B49D000F0D3FEA1785D
:101318004FF4C460BDE8104000F04EBE312BF6D04B
:10132800322B3BD18178BDE8104040F2226000F0BA
:1013380043BE0B7823F002030B707047807800F0EF
:1013480043BB807800F082BD807800F0B5BD80781E
:1013580000F096BA807800F00FBA807800F080BB71
:10136800FFF756B90B7843F001030B70704781788B
:10137800BDE810404FF4C06000F01EBE00F096FBC0
:101388000A2000F015FFBDE8104000F095BB8178F9
:1013980040F2236000F010BE7047704710BD00F0A7
:1013A8009DFEB4E708B50349034807F05BF9002838
:1013B800F9D008BD020003000054004030B50121F7
:1013C80083B0102007F0C6FC41F6706500230322A5
:1013D80001246946064800958DF804408DF80630CA
:1013E8008DF807308DF8052007F010FA03B030BDEE
:1013F8000010024010B5012182B0082007F0AAFCB5
:101408004FF4F844002303226946064800948DF8F7
:1014180004308DF807308DF8052007F0F7F902B091
:1014280010BD00BF000C024070B5134E82B0012100
:10143800082007F08FFC0024022330466946032564
:1014480000938DF804408DF807408DF8055007F09B
:10145800DDF90121042007F07DFC4FF4E0536946D3
:1014680030468DF805508DF804408DF807400093FC
:1014780007F0CCF902B070BD000C02402DE9F04332
:10148800DFF86081DFF86091554F8BB040460BF074
:101498003DFD01214FF4004007F086FC002418228E
:1014A8000723404605A94FF482764FF40075ADF83E
:1014B8002020ADF82430ADF81660ADF81E50ADF818
:1014C8001440ADF81840ADF81A40ADF81C40ADF81E
:1014D80022400BF051FD0121042007F03BFC0226BD
:1014E8004FF4E053484601A9019301258DF80A40BD
:1014F8008DF80B408DF808608DF8096007F086F9C3
:1015080001A9384601968DF80A408DF809608DF8D2
:10151800085007F07BF9484606220A2107F008FA26
:10152800484606220B2107F003FA062248460C21FA
:1015380007F0FEF9214640460BF016FE31463846C4
:1015480007F0E6F9294640460BF0C6FD2946082073
:1015580007F000FC4FF0100801A93846CDF80480C8
:101568008DF808508DF80A408DF809608DF80B50F9
:1015780007F04CF94146384607F0CAF94FF0200801
:1015880001A9384603278DF808408DF80B60CDF87F
:1015980004808DF8097007F039F90521384607F0FD
:1015A800EFF9082303A88DF81130CDF80C808DF8D9
:1015B80010408DF8125007F0EDFC172368468DF89F
:1015C80000308DF803508DF801408DF802400BF083
:1015D80053FF4FF4FA7012F0DFFA0BB0BDE8F08356
:1015E800000C0240003C0040000802402DE9F04198
:1015F800424D434F82B001210820012407F0AAFB85
:1016080003264FF0100828466946CDF800808DF86B
:1016180004408DF807408DF8056007F0F7F841465B
:10162800284607F075F94FF0200800236946284638
:101638008DF804308DF80730CDF800808DF80560FE
:1016480007F0E4F84146284607F062F94FF004082D
:1016580069462846CDF800808DF804408DF805606D
:101668008DF8074007F0D2F84146284607F050F9B0
:101678006946284600948DF804408DF805608DF879
:10168800074007F0C3F82146284607F041F94FF410
:10169800404869463846CDF800808DF804408DF8FA
:1016A80005608DF8074007F0B1F84146384607F065
:1016B8002FF94FF40058694638468DF804408DF8E4
:1016C80005608DF80740CDF8008007F09FF8414687
:1016D800384607F01DF94827694628468DF8044022
:1016E8008DF805608DF80740009707F08FF83946A8
:1016F800284607F00FF902B0BDE8F081000C02405F
:101708000010024008B5FFF759FEFFF773FEFFF718
:101718006DFFFFF789FEBDE80840FFF7AFBE00BFC9
:1017280008B50B4807F0E6F8010B01F00203820A3E
:10173800C0F38031194402F00402030A0A4403F09A
:1017480008038009134400F01000184480B208BD53
:10175800000C024008B5074807F0CCF8C309C0F3ED
:10176800402203F002034009134400F00400184427
:1017780008BD00BF00080240423830283AD8DFE8E8
:1017880000F01D3939393922393939393939392788
:1017980039392C39393939393939393939393939BE
:1017A80039393139393939353939393939393939AD
:1017B800393919002021104807F0AAB84FF4006100
:1017C8000D4807F0A5B84FF400710B4807F0A0B812
:1017D8004FF48051084807F09BB84FF480610648E1
:1017E80007F096B84021044807F092B81021024843
:1017F80007F08EB8704700BF00100240423830280A
:101808003AD8DFE800F01D39393939223939393900
:101818003939392739392C3939393939393939394F
:10182800393939393939313939393935393939392C
:1018380039393939393919002021104807F06AB87F
:101848004FF400610D4807F065B84FF400710B487C
:1018580007F060B84FF48051084807F05BB84FF4C0
:101868008061064807F056B84021044807F052B88E
:101878001021024807F04EB8704700BF0010024020
:10188800423830283AD8DFE800F01D393939392292
:10189800393939393939392739392C3939393939CF
:1018A80039393939393939393939313939393935AC
:1018B8003939393939393939393919002021104834
:1018C80007F032B84FF400610D4807F02DB84FF417
:1018D80000710B4807F028B84FF48051084807F00A
:1018E80023B84FF48061064807F01EB84021044829
:1018F80007F01AB81021024807F016B8704700BF61
:101908000010024000B541F2537487B09621059447
:1019180000E000BF059B5A1E002B0592F9DC013937
:10192800F5D11021274806F0F3FF9621049400E032
:1019380000BF049B5A1E002B0492F9DC0139F5D133
:101948002021204806F0E4FF9621039400E000BF20
:10195800039B5A1E002B0392F9DC0139F5D1402173
:10196800184806F0D5FF9621029400E000BF029BBC
:101978005A1E002B0292F9DC0139F5D110211148C9
:1019880006F0C8FF9621019400E000BF019B5A1E93
:10199800002B0192F9DC0139F5D12021094806F024
:1019A800B9FF9621009400E000BF009B5A1E002B4F
:1019B8000092F9DC0139F5D14021024806F0AAFF6E
:1019C800A4E700BF0010024032281BD007D83028F7
:1019D80014D031280DD110210C4806F099BF3328B6
:1019E80008D0722804D14FF40051094806F090BF7E
:1019F800704770474021054806F08ABF0821034810
:101A080006F086BF2021014806F082BF000C024084
:101A18000010024032281BD007D8302814D03128B3
:101A28000DD110210C4806F075BF332808D0722854
:101A380004D14FF40051094806F06CBF7047704755
:101A48004021054806F066BF0821034806F062BF3A
:101A58002021014806F05EBF000C02400010024041
:101A680032281BD007D8302814D031280DD11021A6
:101A78000C4806F059BF332808D0722804D14FF417
:101A88000051094806F050BF70477047402105488B
:101A980006F04ABF0821034806F046BF2021014846
:101AA80006F042BF000C0240001002400421014829
:101AB80006F030BF000C02400421014806F028BFA0
:101AC800000C024000B504210B4883B006F022FF49
:101AD8000A2141F25370019000E000BF019B5A1E99
:101AE800002B0192F9DC0139F5D10421024806F0F6
:101AF8000FFF03B05DF804FB000C024038B5054643
:101B08000C464FF40031114806F0C2FD0028F8D108
:101B180001210E4806F096FC0D490C4806F0A2FD7E
:101B28000028F9D029462246084806F0A7FC14B137
:101B3800012C07D038BD0749044806F093FD00285A
:101B4800F9D038BDBDE838402CE400BF005400404F
:101B5800010003008200070038B505460C460E4810
:101B6800012106F06FFC0D490B4806F07BFD0028AB
:101B7800F9D029462246084806F080FC14B1012C09
:101B880007D038BD0649044806F06CFD0028F9D096
:101B980038BDBDE8384005E40054004001000300AA
:101BA80082000700014608B5044806F0F1FC044924
:101BB800024806F057FD0028F9D008BD005400403F
:101BC8008400070008B50121064806F063FC0649B1
:101BD800044806F047FD0028F9D00248BDE808404F
:101BE80006F0D8BC0054004040000300002109481A
:101BF80008B506F04FFC0121064806F031FC0649FD
:101C0800044806F02FFD0028F9D00248BDE8084036
:101C180006F0C0BC00540040400003000121014808
:101C280006F01EBC0054004070B506460C469A20CB
:101C380000211546FFF762FF3046FFF7B3FF002D7E
:101C4800C8BF2D1905DD14F8010BFFF7ABFFAC4237
:101C5800F9D101210248BDE8704006F001BC00BF7F
:101C68000054004070B5012188B04FF4001007F00F
:101C78009BF80121022007F06DF801240223C022FD
:101C880002A927488DF80C308DF80D3002928DF896
:101C98000E408DF80F4006F0B9FD042206212048B9
:101CA80006F046FE042207211D4806F041FE1D4BA2
:101CB8001D4804934FF48042002304A94BF6FF7695
:101CC8004FF48065ADF81430ADF81830ADF81C202D
:101CD800ADF81660ADF81A5006F022FB21461248FE
:101CE80006F0A2FB642141F25370019000E000BFAE
:101CF800019B5A1E002B0192F9DC0139F5D108AC81
:101D0800232304F81D3D012221460B20FFF78CFFF9
:101D1800214601220C20FFF787FF08B070BD00BFE5
:101D280000040240A086010000540040F8B50446B3
:101D38000F469A2000211646FFF7E0FE2046FFF7DF
:101D480031FF01219A20FFF707FF012E0DDDB51E97
:101D58003D447C1EFFF736FF04F8010FAC42F9D171
:101D6800013EFFF743FFB855F8BD0026F9E700BF6D
:101D78002DE9F043332883B00E4690461D4654D0D3
:101D880035284AD00024704601A90222FFF7CEFF69
:101D98009DF805209DF8040042EA002040F3C81091
:101DA80012F008FD214612F059FD234912F00AFEEF
:101DB80001A9C8F8000002224846FFF7B7FF9DF8BE
:101DC80005209DF8040042EA0020800912F0F2FC88
:101DD8001A4912F043FD1A4912F0F4FD01A93060C6
:101DE80002223846FFF7A2FF9DF805209DF804005F
:101DF80042EA002000B212F0DDFC104906462046F7
:101E080012F02CFD0146304612F028FD0D4912F063
:101E1800D9FD286003B0BDE8F08317274FF01309F8
:101E28004FF00F0E4FF08044ADE715274FF0110922
:101E38004FF00D0E044CA6E700007F4300D81F4268
:101E480000C07F4400FF7F47ABAAAA3E332807D0D3
:101E5800352804D14FF40041044806F059BD7047B5
:101E68004FF48041014806F053BD00BF0010024006
:101E7800332807D0352804D14FF40041044806F030
:101E880049BD70474FF48041014806F043BD00BF8B
:101E980000100240332807D0352804D14FF4004100
:101EA800044806F041BD70474FF48041014806F0F0
:101EB8003BBD00BF0010024000B5332883B01BD0E3
:101EC800352816D14FF40041184806F023FD142197
:101ED80041F25370019000E000BF019B5A1E002B95
:101EE8000192F9DC0139F5D14FF400410F4806F0B1
:101EF8000FFD03B05DF804FB4FF480410B4806F07A
:101F080009FD142141F25370009000E000BF009BCE
:101F18005A1E002B0092F9DC0139F5D14FF48041AB
:101F2800024806F0F5FC03B05DF804FB001002401F
:101F380010B5044602210A480BF094F90028F9D09C
:101F4800214607480BF054F9012105480BF08AF99E
:101F58000028F9D002480BF047F9C0B210BD00BF05
:101F6800003C0040F8B500F00307124EC01B0D46B8
:101F780084B20121304606F0CDFCC4F3061040F0CF
:101F88008000FFF7D5FF0C20B840A40800F47F704C
:101F980040EA841000F0FC00FFF7CAFFE8B2FFF740
:101FA800C7FF280AFFF7C4FF30460121BDE8F84003
:101FB80006F0AEBC000C02402DE9F041124E00F0D4
:101FC8000304001B85B2884630460121012706F02C
:101FD800A1FC07FA04F4C5F3061040F08000A40041
:101FE800FFF7A6FF04F47F74A80844EA801000F005
:101FF800FC00FFF79DFF4046FFF79AFF3946304641
:10200800BDE8F04106F084BC000C024070B500F059
:102018000306134D801B012184B2284606F07AFC82
:10202800C4F30610FFF784FF0C20B040A40800F4A6
:102038007F7040EA841000F0FC00FFF779FF002071
:10204800FFF776FF04460020FFF772FF01210646DE
:10205800284606F05DFC04EB062080B270BD00BF88
:10206800000C0240F8B5124F00F00304001B0126D3
:10207800012185B206FA04F4384606F04BFCA400A8
:10208800C5F30610FFF754FF04F47F74A80844EA68
:10209800801000F0FC00FFF74BFF0020FFF748FF1F
:1020A80031460446384606F033FC2046F8BD00BFEA
:1020B800000C024008B5002140F20620FFF752FF4D
:1020C80043F613614FF40A70FFF74CFF012140F209
:1020D8000620BDE80840FFF745BF00BF08B500214E
:1020E80040F20620FFF73EFF43F603614FF40A7003
:1020F800FFF738FF012140F20620BDE80840FFF74E
:1021080031BF00BF00B501214FF4C06085B0FFF7B3
:1021180053FF0A2141F25370039000E000BF039B74
:102128005A1E002B0392F9DC0139F5D108214FF42E
:10213800C060FFF741FF0A2141F25370029000E0AE
:1021480000BF029B5A1E002B0292F9DC0139F5D11F
:1021580002214FF4C060FFF72FFF0A2141F25370AC
:10216800019000E000BF019B5A1E002B0192F9DC90
:102178000139F5D179214FF4C460FFF71DFF04211F
:1021880040F22260FFF7EEFE05B05DF804FB00BFE9
:10219800BFF34F8F0449054BCA6802F4E06213434A
:1021A800CB60BFF34F8FFEE700ED00E00400FA05B7
:1021B800002882B041F253710ADD019100E000BFAE
:1021C800019B5A1E002B0192F9DC01380028F4DC2F
:1021D80002B070470B4B1B6870B50C469E6879B10E
:1021E800002562896168701912F080FE638924688D
:1021F8001D44002CF5D1A8B20CF04EF9002070BD9A
:102208000846F9E70C8300202DE9F04184B0074621
:1022180001A80CF0D3F803221046BDF80410DDF82D
:10222800088000F009FF064660B10446002562896F
:10223800606808EB050112F059FE638924681D44A3
:10224800002CF4D1184B18688368012B27D9036830
:10225800826842B100224FF000441C60DB6881684C
:1022680001328A42F9D30022104B826041F21401F4
:102278005858000604D541F2080080245C501A50D2
:102288007EB13B69394630469847044618B1304616
:1022980000F0AAFE204640B204B0BDE8F081039BDE
:1022A800D6E7FF20F7E700BF78A1002000800240B2
:1022B800F8B5224BDFF89CE0C0F814E0054673211E
:1022C800742280F8321080F833201B781C4F85F870
:1022D800303000207022AE21062685F82B1085F8B4
:1022E8002C2085F82D0085F82E0085F82F0005F1A3
:1022F8002B01144CAF6185F82A600CF019F83223D1
:1023080040F2DC522A8585F8313005220E492046F4
:102318000CF09CF905220D490D480CF023F904F145
:10232800A00520464FF4400120340CF0DBF9AC4204
:10233800F7D10BF091FF0020F8BD00BFEC0400209E
:10234800DD210208108300201CA20020B083002099
:102358007CA10020597F02082DE9F0474768DFF883
:102368005C908046388905F0A7FAD9F8004014B384
:10237800C0B205B20C37002603E0E3682646D3B1A5
:102388001C46237CAB42F8D1D4F814A021463B4626
:102398004246BAF1000FF0D0A069D0470028ECD02F
:1023A80036B1E268D9F80030F260C9F80040E3605D
:1023B8000120BDE8F0870020BDE8F087380500203F
:1023C80001B1096801600020704700BF01B10968C8
:1023D80041600020704700BF41618261704700BFC3
:1023E800F0B50D4685B0044614212846174600F07E
:1023F800C7FD38B300221146012000F01DFE064635
:10240800A8B3294600F0FAFE384604F0ADF928B31F
:1024180021460CB1236803B9011DE37A94F810E052
:10242800A47A02908DE810403A46304604F096FAB5
:10243800B542044603D0304600F0D6FD204640B2EF
:1024480005B0F0BD6FF01301284600F099FD70B992
:10245800384604F089F930B12E46D9E7B54202D0A2
:10246800304600F0C1FDFC2040B205B0F0BDFF20B1
:10247800E5E700BF021DFFF7B3BF00BF0D4B1A68A9
:102488008242014611D03AB1D3682BB1994206D0A5
:102498001A46D368002BF9D1002000F06DB8CB683C
:1024A800D360002BF8D01A46F3E7C2681A60002000
:1024B80000F062B83805002010B50446002000F08E
:1024C8004BF868B1074A1168C1600023FF21836097
:1024D8000361106003604360436183610474C172E7
:1024E80010BD00BF380500202DE9F047174FDFF871
:1024F80064E0174E002527F003070EF11408AC46D8
:102508000424C6F800C0B4B10022114638F815906A
:102518003B4600E05346013290B28442196003EB17
:10252800090A1946F6D8631E9CB204FB099309FBF5
:10253800047434601F440135092D06F1040602D0E5
:102548003EF8024FDDE7BDE8F08700BF3F050020F9
:10255800A8520020305C0308082809D8054B03EB73
:102568008003D3F88C0920B10268C3F88C2970471E
:10257800002070471C49002039B1044B03EB800050
:10258800D0F88C390B60C0F88C1970471C490020B2
:1025980070B50546008B0C46164605F089F9208073
:1025A800288C05F085F966606080686A05F08AF90C
:1025B800A0604FF6C070A68905F07AF90640102091
:1025C80005F076F93043A081688D05F071F9002691
:1025D800E081A674E674A08905F06EF900F03F006A
:1025E80040F4A04005F064F96B8D6A6AA081134439
:1025F800267466742046EB6270BD00BF2DE9F04F6B
:102608008DB0074609919DF858100B919DF85C1004
:10261800069305910A92002A40F0FE80002900F0F6
:10262800F380099B002B40F00581059B13F00108FE
:1026380018BF4FF00408059BB7F87060D7F868908A
:1026480003F00203002B14BF0C23002398445FFA05
:1026580088F3032E009300F2E5809B0805331B03E3
:102668009BB207930B9BDDF824A00A9D002203F080
:10267800010304929346039378E0009B0022E1183B
:1026880089B2104600F0D8FCC8F80400002800F011
:10269800AD8000F08BFD099A304486B242B1D8F87B
:1026A8000420009B506851462246184412F01EFC34
:1026B800D8F804205268C8F80820042E00F2968042
:1026C800A8F80C401421D8F8040000F059FC029036
:1026D800002840F08B80D8F80410388BD1F804B06B
:1026E800C8F810B005F0E4F8ABF80000388CD8F85A
:1026F80010B005F0DDF8D8F81010ABF80200484625
:10270800019105F0DFF80199D8F810B0029A4860F5
:102718008BF812208BF813204FF6C070BBF80C20F2
:10272800019205F0C5F8019A02400698019205F059
:10273800BFF8019AD8F810109DF814301043ABF880
:102748000C0088F80E308889019105F0B5F8079BD0
:1027580000F03F00184305F0ABF82D1B0199ADB20E
:10276800A244A1448881C346002D72D03C8F009BAF
:10277800E41AAC424FF00400A8BF2C46FFF7ECFE69
:10278800A4B280460894002859D0049B0022026015
:102798004260002B3ED0CBF80000039B002B7FF457
:1027A8006CAF03980099024600F046FCC8F8040094
:1027B800E0B100F0FBFC304486B2002D3FF47DAF61
:1027C80001222146032000F037FC002800F0ED80AC
:1027D8000136C0F804A00146C8F808A0D8F80400DB
:1027E800B6B200F0F3FC042E7FF66AAF97F82230F9
:1027F80063F07F0387F82230049803F0D5F9FF20AF
:1028080040B20DB0BDE8F08F9A0713D0099B8BB981
:10281800984610E70490C0E7B0F86E300A9A9342E1
:10282800BFF403AF97F8223063F07F0387F82230B4
:10283800FF20E5E7F62040B20DB0BDE8F08F97F82D
:10284800223063F07F0387F82230049B002BD6D018
:10285800D2E77C6F0CB946E01C462368002BFBD1FD
:102868002269A589908905F027F810F0030018BFA0
:102878000120E8423FD1069B03F0030A049B236032
:10288800069B5FFA8AF503F0010B1DB10A9A013223
:1028980093B20A93BBF1000F05D097F8222042F0BB
:1028A800200287F82220B96EB7F86E200A98A7F898
:1028B80070600144121AB966A7F86E20B8F1000FCB
:1028C80000F08380089B63B1D8F81050002D7ED0AB
:1028D8000B9B03F0020202F0FF04002A6DD00020D7
:1028E8008EE708988CE7069A049B7B6702F003053D
:1028F80002F0010BC9E72269908904F0DDFF830724
:10290800B9D1069A02F0030A0AF0FF05BAF1000FDE
:1029180001D0012AB2D1049BA0899A89398F024437
:102928008A42ABDCA17B9A7B9142A7D1226950688D
:1029380004F0C6FF049BB4F80C901A6981445068EF
:1029480004F0BEFF814599D1009BC3F57F41049BEC
:10295800EC3109B2586800F013FB00287FF446AF49
:10296800049B5868418931B902685A60013E016088
:10297800B6B200F039FB069B13F0010B29D0D4F84E
:1029880010A00120BAF80C9004F092FF49EA000068
:10299800AAF80C00049B434502D1A3890893A046DA
:1029A80004990420FFF7E8FD6FE7D8F8040000F069
:1029B8001BFB039BC8F8043018E70820AE8904F015
:1029C80077FF3043A88120461AE7404618E7284693
:1029D80016E7049B6068596800F0F8FB0499A08921
:1029E8008A89096821600244A281D3E710B582B0C0
:1029F800002201240B46019211460094FFF7FEFDC8
:102A080002B010BD10B5047C072C82B006D0023C81
:102A1800022C03D9F82040B202B010BD1AB91046F2
:102A280040B202B010BD1C46002300940193FFF78A
:102A3800E5FD40B202B010BD30B5002283B00446B7
:102A48001421012000F0F8FAF8B194F8223023F0AC
:102A58000303054684F82230A06D04F033FF69684B
:102A680002462046FFF794FDA27AE37A00920622F6
:102A780001922146221D284603F0E0FF284600F077
:102A8800B3FA002040B203B030BDFE20FAE700BF21
:102A9800A04B1B68834200F03A812DE9F047B0F85B
:102AA8005C20B0F8528090F82230456F904528BFDE
:102AB80090469A0782B0044640F1C880002D00F085
:102AC8000E812B69586804F0FBFEAB89E26C9B1AF7
:102AD80018448045C0F00381A76F37B13B68002BCD
:102AE80040F0B780002D00F0C480DFF8309265E038
:102AF8002368261D2BB9304603F036FE30B34368F1
:102B08002360B4F93630013304BF0023E386E36B56
:102B1800002B00F0B8806868296943680289B0F81A
:102B28000AE04160CB1A9BB2C3EB0E0ED31A002207
:102B3800A0F80AE003810A744A74A27AE37A009240
:102B4800062101913246214603F078FF2B69586827
:102B580004F0B6FE2B69B5F80CA00646988904F077
:102B6800ABFE10F0030018BF0120A36D50443044A1
:102B78001B1A002B2B69B8BFA0659889AE8904F091
:102B88009BFE10F0030018BF0120F04200F0A38064
:102B9800A36F00222A60002B7ED02B69586804F0AE
:102BA8008FFE3B690646586804F08AFE301A0028F2
:102BB80075DB3D602F46656F002D5AD02B6958682C
:102BC80004F07EFEAB89E26C9B1A184480454CD316
:102BD8002B69988904F070FEA36F53B194F82230E2
:102BE80013F0440F05D1626F002A3BD01168002909
:102BF80034D0237C2A686267022B0FD0D5F810A046
:102C08001020BAF80C6004F053FE3043AAF80C0008
:102C180094F8223023F0030384F82230606A2E6986
:102C280004F050FEB060608D2E6904F041FE638DA3
:102C3800626AF0811344E362AB7BDB077FF558AF30
:102C480035482E6904F03EFE706151E7876F0FB971
:102C580048E71F463B68002BFBD143E79189228F49
:102C68009142C6D213F0A00FC3D194F89C60002EF5
:102C78003BD094F82230002003F07F0384F8223000
:102C880002B0BDE8F0872B69D9F80020E2635868E4
:102C980004F016FE20643EE7A5672F468BE7A36F76
:102CA80004F1780A2BB912E0DAF800A0DAF800305B
:102CB8006BB11B69586804F003FE2B690646586817
:102CC80004F0FEFD301A0028EEDBDAF800302B6045
:102CD800CAF800506FE7284602F052FF6BE720461B
:102CE80002B0BDE8F047FFF7A7BE2B69586804F0AB
:102CF800E7FDAB89E16CB4F85C205B1A184490429C
:102D0800B7D90123C4F8986084F89C30B1E7002053
:102D1800704700BFD0820020B4050402D88200208A
:102D28002DE9F04782B081460D461746142100224E
:102D380001209846BDF82840BDF82CA000F07CF989
:102D480000283FD006462046746804F0B1FD208074
:102D5800504604F0ADFD6080484604F0B3FD606065
:102D6800284604F0AFFDA0604FF6C070A58904F0B6
:102D78009FFD0540142004F09BFD2843A08140F6E8
:102D8800683004F095FD0025E081A574E574A089FC
:102D980004F092FD00F03F0040F4A04004F088FDEC
:102DA8000623A0812574657442460193009539462F
:102DB800FF23304603F042FE304602B0BDE8F0473C
:102DC80000F012B902B0BDE8F08700BF816F99B179
:102DD8000A4600E01A461368002BFBD110B4446F72
:102DE800146090F84A204167013280F84A208367CE
:102DF800C36310BCFFF74CBE704700BFF8B5866FC1
:102E080006B3436F32688267074600F174051BB941
:102E18000FE02D682B6863B11B69586804F050FDFA
:102E280033690446586804F04BFD201A0028F0DB8B
:102E38002B6833602E6097F84A300022013387F8F8
:102E48004A30FA63F8BD00BF826F1AB190F82220A9
:102E5800520700D5704710B50446FFF7CFFFB4F806
:102E68005C20B4F85230208F94F82210934294BF1B
:102E78005A08520843009A42A4F85420B8BF9AB29C
:102E880003441344B8BFA4F8542041F0040284F862
:102E98002220A4F8523010BD30B5002283B0044679
:102EA8001421012000F0C8F8C8B10546A06D01380A
:102EB80004F008FD696802462046FFF769FB002117
:102EC8000622E37A28468DE80600221D214603F0F3
:102ED800B5FD284603B0BDE8304000F085B803B022
:102EE80030BD00BFF0B5856F83B0002D43D02B698E
:102EF8000446988904F0E0FCC3071BD5AA89CAB91F
:102F08001421012000F098F80646002836D02B69D5
:102F180071685A682046FFF73BFB07464FF6C070BA
:102F2800BD8904F0C5FC0540112004F0C1FC28430C
:102F3800B88110E000221521012000F07DF8064636
:102F4800E0B12B6971685A682046FFF721FBAA682F
:102F5800736812781A7500210622E37A30468DE8E4
:102F68000600221D214603F069FD304603B0BDE886
:102F7800F04000F039B8456F002DB8D103B0F0BD6E
:102F880010B4D9B158B100291BDB8AB2037B44685D
:102F98003BB1032B05D0013B012B1CD9012010BCF0
:102FA8007047631A00F11002934243600FD34389BC
:102FB800028989B20B44114443810181002010BC6D
:102FC80070474A42438992B29342DFD2E6E74460AF
:102FD800012010BC70470029E0DA43899A42DDD805
:102FE800641A4460E4E700BF014618B338B500240A
:102FF80005E003F07FFA0134E4B2ADB12946CB898C
:10300800013B9BB20846CB8173B90B7B0D68032B40
:1030180003F1FF320AD0012AEBD807200134FFF769
:10302800ABFAE4B2002DE9D1204638BD0820FFF7FD
:10303800A3FAE0E7704700BF2DE9F843032800F240
:103048008880DFE800F082848002002415468846E4
:10305800032A7ED8DFE802F0574949020820FFF723
:103068007BFA0646002874D0E31C23F00303C3F55B
:10307800FA734345A8BF4346044400271334C3EBFF
:10308800080524F003044FF003090122BD42A0F80B
:1030980008804381446080F80C900760C2814BDD52
:1030A80080460DE080F80C9047730760C8F8000070
:1030B8000581ED1A002D43814160C28180463BDDC8
:1030C8000820FFF749FAB5F5FA7F2B460446A8BF52
:1030D8004FF4FA7300F1100101220028E2D13046C2
:1030E800FFF782FF2046BDE8F8830720FFF734FA90
:1030F800064670B30023A0F80880A0F80A8005737C
:103108004360036018E0CB1C04F1130023F00303B1
:1031180020F00300184480B203F094FA0646C0B1C8
:1031280004441334002324F003044460A0F8088006
:10313800A0F80A8003600373002301227373F281ED
:103148003046BDE8F8830E2480E736247EE7222443
:103158007CE70020BDE8F88338B503898B4223D982
:103168004289914205460C460AD9C91A00E02B89C2
:103178000B442B812D68A41A6A89A4B2A242F6D303
:103188002B7B4BB9A24207D06B685B1BE118284622
:1031980089B203F0F7F9054628686C812C8108B1DB
:1031A800FFF722FF00232B6038BD00BF034630B174
:1031B80000201B680130C0B2002BFAD1704770475D
:1031C80010B1C3890133C381704700BF98B191B171
:1031D800026830B40AB90FE0224605890B891468E1
:1031E8002B4403811046002CF6D130BC0B89108982
:1031F80011600344138170470246F6E7B8B1A9B1DC
:10320800026830B40AB918E0224605890B891468A7
:103218002B4403811046002CF6D110890B891160CC
:10322800034430BC1381CB890133CB81704700291B
:10323800FCD0CB890133CB8170470246EDE700BF54
:1032480038B504686CB14189028903460025521AD1
:103258002281204619811D60FFF7C6FE08B9204665
:1032680038BD002038BD00BF2DE9F041002851D0FD
:103278000F4600294ED002890B899A42064649D347
:103288004FF00008454673897C8970687968C8EBF7
:1032980004045B1BA342B4BF9CB2A4B228444144BB
:1032A800224611F023FE25447389ADB2AB42444453
:1032B8007B8908BF36681FFA84F808BF002598453F
:1032C80004D33F68BFB17B894FF000083A899A421E
:1032D8000CD0002ED7D0728933899A42D3D1336863
:1032E800002BD0D0F72670B2BDE8F0813B68002BE8
:1032F800EFD0F726F7E756B1328973899A4218BF9B
:103308003E4604D13368002B0CBF0026F72670B266
:10331800BDE8F081F626FAE72DE9F843054660B3E3
:10332800884661B316466AB30027B94608EB090018
:103338006A8953B19A42A3EB020106D82D688BB271
:10334800002DF3D13846BDE8F883D41AA4B2B442AC
:1033580028BF34466968361B224619442744A144CD
:10336800B6B211F0C3FDBFB21FFA89F92D68002E5D
:10337800E8D00023002DD9D1E4E7BDE8F88308465A
:10338800BDE8F8831046BDE8F88300BFF8B12DE921
:10339800F0418846B9B1038993421446074619D3C8
:1033A8008AB100267D897868A54228BF2546641B16
:1033B80008EB06012A462E44A4B211F097FDB6B2D6
:1033C8003F68002CEED1002040B2BDE8F08100201B
:1033D80040B27047F620F7E738B50368044673B182
:1033E800084600222189FFF727FE054638B1214605
:1033F800FFF73AFF2046FFF7F7FD284638BD20467D
:1034080038BD00BF2DE9F0474668048982B00546FB
:103418003088884604F050FAC0F303200230B4EB39
:10342800800F0BDB308804F047FAC0F303208100DB
:1034380049422846FFF7A4FD074628B1284602B0AE
:10344800BDE8F047FFF7D0BD414606F110006C68B3
:1034580003F06CF98246208804F02EFA81466088D1
:1034680004F02AFA44282BD0DFF814E1DEF8001023
:1034780049B33A460C4604E0E3682246002B52D092
:103488001C46638A8342F7D1BAF1000F05D123683D
:103498001BB1D6F810C06345EED1002F3DD0A38AEA
:1034A8004B45E9D163681BB1D6F80CC06345E3D13D
:1034B800002A5DD0E368D360CEF80040E16057E0B1
:1034C800B9F1430F48D0D8F8042033699A42B5D1EE
:1034D8006FF007012846FFF753FD0028AED1BAF177
:1034E800000FABD14FF07040346904F0E9F90440A3
:1034F8004FF0604004F0E4F984429FD0308804F033
:10350800DBF9C0F30320811C89002846FFF738FD4A
:103518000321284604F02CF890E7237C13F0040FCD
:1035280008BF2746BBE7002FCDD06FF0070128461C
:10353800FFF726FD002881D13C46A769002F3FF4FC
:103548007DAFE069CDF8009006F10C032A462146CC
:10355800B84702B0BDE8F087D8F82030002BB2D0C9
:103568005C68002CAFD0636813B1F2689342AAD1AB
:103578006FF007012846FFF703FD0028DDD05DE75F
:10358800CC820020F0B41B4E3568002D2DD02B4680
:103598000024984208BF0124DB68002BF9D101B14F
:1035A800096801605AB915B32B464FF4805247F6A3
:1035B800FF77598A91420AD0DB68002BF9D1428201
:1035C8005CB9C5603060204640B2F0BC704701323B
:1035D80092B2BA4205D02B46EBE7002040B2F0BCCD
:1035E8007047F52040B2F0BC70472C46D7E74FF43F
:1035F8008052E4E7CC8200202DE9F0470F4684B0E2
:10360800418ADDF8308004469246994621B90A4637
:103618000146FFF7B7FFE8B908213846FFF7B0FCC5
:10362800E0B93E46608A756804F042F92880484649
:1036380004F03EF9226868800023AB71EB71C2B1D7
:10364800D8F804309A4233D0BE422FD03046FFF724
:10365800CBFCF72040B204B0BDE8F0870022082177
:103668000120FFF7E9FC064620B33946FFF7C6FDFF
:10367800D8E708F10409308904F01AF9A880E37A38
:10368800A47A009411200190CDF80880524649464A
:10369800304603F063F9BE420446DBD03046FFF7FC
:1036A800A3FC204640B204B0BDE8F087F720D1E77C
:1036B800A146E0E7FF20CDE7F0B5054683B0104608
:1036C80014460E461F4603F04FF848B100903B469B
:1036D800224631462846FFF78FFF40B203B0F0BDBF
:1036E800FC20FAE7021D838AFFF7E6BF438A70B51C
:1036F80004460D461646C3B105B12D681049237C12
:103708000A68656043F00403A682237442B19442B8
:1037180013D0134601E09C420FD0DB68002BFAD18E
:103728000020E2600C6040B270BD1A460146FFF707
:1037380029FF0028E0D040B270BD002040B270BD23
:10374800CC820020044A037C1268426023F0040300
:103758000022828203747047745C03088161C2612D
:10376800704700BF0D4B1A688242014611D03AB12A
:10377800D3682BB1994206D01A46D368002BF9D1E9
:103788000120FEF7F9BECB68D360002BF8D01A46AB
:10379800F3E7C2681A600120FEF7EEBECC82002073
:1037A80010B50120FEF7D8FE044628B120220021DA
:1037B80012F00AF9FF23E372204610BD08B502F0A3
:1037C8007BFEFEF791FEBDE8084003F099B900BF03
:1037D800F0B5C568002D4AD0068A0746002E44D0A9
:1037E8002A78FF2A3CD000239E4628460DE09142C5
:1037F80037D02A5D023312FA83F39BB29E4205EB5F
:10380800030010D9EA5CFF2A0DD05C1C342AA4B24C
:10381800EDD19A1C03339BB292B29E4215F802E096
:1038280005EB0300EED8BEF1000F22D0BEF1010F68
:10383800BC6817D0BEF1020F0CBF4026C0262C343E
:103848000023E55C5A1CFF2D92B204EB030007D05D
:10385800A94206D0A25C023213449BB29E42F0D821
:103868000020F0BD80266C34EAE73046F0BD2846DB
:10387800F0BD7046F0BD00BF002800F08680F8B5A6
:10388800046A002C7DD0002206464FF49A71104637
:10389800FFF7D2FB6061002875D0E37C002B68D06D
:1038A8003B4B1B684168A161012223600A70A36930
:1038B8005A70A36906229A70A3690025DD702068F2
:1038C800A76903F0FFFFA2697860157255729572B7
:1038D800D572157355739573D573A37C0A2B4DD088
:1038E800043B012B4AD90023137453749374D37483
:1038F800137553759375D375137653769376D3767C
:1039080006F12B0100E0A26996F82A009DB2A842B0
:103918001A4403F101038CBF0D780025102B15778D
:1039280001F10101EFD100231946A2691A440133BC
:10393800402B82F82C10F8D100231946A2691A44AA
:103948000133802B82F86C104FF00005F6D1114836
:10395800A66903F0B7FF2B46C6F8EC00A583A26959
:103968001A4482F8F0300133442BF8D1002040B2D9
:10397800F8BD074A13680133136093E77368D3608F
:10398800B1E7F720F3E7FF20F1E7F62040B27047F0
:103998001C0000206353826350B110B5046A34B12F
:1039A800606908B1FFF720FB00236361A36110BDC4
:1039B800704700BF10B5046AA37C082B03D0082207
:1039C8000023A274E374002204F1280104F004FA2D
:1039D800E37C01221344E374E28310BD002872D013
:1039E80030B5046A83B0002C3AD0A36C5A1C0AD0B4
:1039F800354A1E33A2FB03235B09B3F5803F31D25E
:103A080003B901232384E36C5A1C0AD02E4A1E33BF
:103A1800A2FB03235B09B3F5803F2AD34FF6FF735C
:103A280063840546E06A009058B3236B0193002B2A
:103A380035D004F12801284602F098FC694628464A
:103A480002F010FD01A9284602F008FD284602F000
:103A580013FDA37C0A2B03D00A220023A274E3746B
:103A680003B030BDE36C4FF6FF72591C2284CDD1F0
:103A7800D7E703B901230546E06A6384009000286C
:103A8800D3D103F01DFF000E030613D44FF07F407F
:103A980003F018FF236B00900193002BC9D1A26A91
:103AA800009B01201340019303F00CFF019B184376
:103AB8000190BEE7BF288CBF6FF0FF00034803F0FA
:103AC80001FF0090B1E77047898888880000FFFFF0
:103AD80010B50446806818B102F00CFD0023A360FD
:103AE800E06820B102F006FD0023E360238210BDE8
:103AF800002105E082691A440133838382F8F010BB
:103B0800838B432BF6D99A07F4D1704770B5046AB2
:103B1800A37C042B82B0064603D004220023A2749F
:103B2800E3743046FFF7A8FE0546002852D1A38B60
:103B3800A2691A4435210133A38382F8F010A38BBC
:103B4800A2691A4401210133A38382F8F010A38BE0
:103B5800A2691A440B440321A38382F8F010A38BB3
:103B6800A2691A4439210133A38382F8F010A38B88
:103B7800A2691A4402210133A38382F8F010A38BAF
:103B8800A269318D1A44080A0133A38382F8F00030
:103B9800A38BA2691A440133A38382F8F010A38B84
:103BA800A2691A44FF2101332046A38382F8F0104A
:103BB800FFF79EFFA18B6069F03189B2FFF7CCFA5D
:103BC80061696068124A00964323FFF715FD304685
:103BD800FFF7E2FEE37C0133DBB2092BE37412D872
:103BE800C3EB431203EB8202D20092B2094B02F2FA
:103BF800F31283FB0213D217C2EB63139BB228465E
:103C0800E38302B070BD14232846E38302B070BD7D
:103C1800705C0308D34D6210F0B5584B046A1A68FB
:103C2800A37CA262062B83B0064603D0062200239B
:103C3800A274E3743046FFF71FFE0546002840F0E3
:103C48008180A38BA2691A4435210133A38382F8AA
:103C5800F010A38BA269D11801220133A38381F844
:103C6800F020A38BA16919441344A38381F8F020A1
:103C7800A38BA169194439201344A38381F8F00068
:103C8800A38BA169194402201344A38381F8F0008F
:103C9800A38BA169308D1944070A1344A38381F8C3
:103CA800F070A38BA16919441344A38381F8F00031
:103CB800A38BA169194437201344A38381F8F0002A
:103CC800A38BA169194404201344A38381F8F0004D
:103CD800A38BA16919441344A38381F8F020A38B13
:103CE800A2691A4403210133A38382F8F010A38B3D
:103CF800A2691A441C210133A38382F8F010A38B14
:103D0800A2691A4406210133A38382F8F010A38B19
:103D1800A2691A44FF210133A383204682F8F010D8
:103D2800FFF7E6FEA18B6069F03189B2FFF714FA5C
:103D380061696068124A00964323FFF75DFC3046CC
:103D4800FFF72AFEE27C0132D2B2052AE27410D8CB
:103D58004FF47A7303FA02F20A4B02F2F31283FB6E
:103D68000213D217C2EB63139BB22846E38303B056
:103D7800F0BD78232846E38303B0F0BD745C0308E4
:103D8800705C0308D34D62102DE9F043046AA37CEC
:103D9800012B83B0064603D001220023A274E374EA
:103DA8003046FFF769FD0546E8B1E27C0132D2B240
:103DB800052AE27411D84FF47A7303FA02F27D4BA4
:103DC80002F2F31283FB0213D217C2EB63139BB206
:103DD8002846E38303B0BDE8F08378232846E383CD
:103DE80003B0BDE8F083A38BA2691A4435210133DF
:103DF800A38382F8F010A38BA2691A444FF001083C
:103E08000133A38382F8F080A38BA2691A440327A5
:103E18004344A38382F8F070A38BA2691A44392122
:103E28004344A38382F8F010A38BA2691A440221A9
:103E38004344A38382F8F010A38BA269318D1A44FE
:103E4800080A4344A38382F8F000A38BA2691A44AA
:103E58004344A38382F8F010A38BA2691A44322149
:103E68004344A38382F8F010A38BA2691A444FF04D
:103E780004094344A38382F8F090A06A03F020FD6C
:103E8800A28BA3691344010E4244A28383F8F01065
:103E9800A28BA3691344010C4244A28383F8F01057
:103EA800A28BA3691344010A4244A28383F8F01049
:103EB800A28BA36913444244A28383F8F000A38B26
:103EC800A2691A4436214344A38382F8F010A38BD5
:103ED800A2691A444344A38382F8F090606A03F00D
:103EE800EFFCA28BA3691344010E4244A28383F81A
:103EF800F010A28BA3691344010C4244A28383F8F7
:103F0800F010A28BA3691344010A4244A28383F8E8
:103F1800F010A28BA36913444244A28383F8F000F3
:103F2800A38BA2691A4437214344A38382F8F01073
:103F3800A38BA2691A444344A38382F8F090A38B0D
:103F4800A2691A444344A38382F8F080A38BA26930
:103F58001A444344A38382F8F070A269A38B1A44DD
:103F68001C214344A38382F8F010A38BA2691A444E
:103F780006214344A38382F8F010A38BA2691A4454
:103F8800FF214344A383204682F8F010FFF7B0FDD9
:103F9800A18B6069F03189B2FFF7DEF8616960686A
:103FA800054A00964323FFF727FB3046FFF7F4FC4A
:103FB800FBE600BFD34D6210705C030870B5046A5D
:103FC800A37C032B82B0064603D003220023A274ED
:103FD800E3743046FFF750FC0546E8B1E37C013353
:103FE800DBB2092BE37412D8C3EB431203EB820252
:103FF800D20092B24B4B02F2F31283FB0213D21798
:10400800C2EB63139BB22846E38302B070BD14234E
:104018002846E38302B070BDA38BA2691A443521F8
:104028000133A38382F8F010A38BA2691A440121FB
:104038000133A38382F8F010A38BA2691A440B44BE
:104048000321A38382F8F010A38BA2691A443921B3
:104058000133A38382F8F010A38BA2691A440221CA
:104068000133A38382F8F010A38BA2691A440133A9
:10407800A38382F8F010A38BA2691A44402101336C
:10408800A38382F8F010A38BA2691A44322101336A
:10409800A38382F8F010A269A38B1A440421013388
:1040A800A38382F8F010A06A03F00AFCA38BA2692C
:1040B8001A44010E0133A38382F8F010A38BA2697E
:1040C8001A44010C0133A38382F8F010A38BA26970
:1040D8001A44010A0133A38382F8F010A38BA26962
:1040E8001A440133A38382F8F000A38BA2691A440F
:1040F800FF210133A383204682F8F010FFF7F8FC74
:10410800A18B6069F03189B2FFF726F861696068B0
:10411800054A00964323FFF76FFA3046FFF73CFC49
:104128005CE700BFD34D6210705C03082DE9F04FC7
:104138005389076A2B2B83B0154605D9D2F804E0BA
:104148009EF80030022B08D03846FFF7C1FC2846FD
:1041580003B0BDE8F04FFEF747BF90F82A30064697
:10416800B3B190F82B109EF81C209142ECD15C1E44
:10417800E4B22B34044400F12B030EF11C0205E0D9
:1041880013F8010F12F8011F8842DDD1A342F7D1BD
:10419800DEF8040003F094FB3B689842D4D138461B
:1041A800FFF796FC2B89F02B08D9F03B98B23882A0
:1041B80002F048FAF860002800F03381F02002F09D
:1041C80041FA0146B86000283BD00023F022284677
:1041D800FFF7A2F8F96821B1F0233A8A2846FFF7D9
:1041E8009BF835213846FFF7F3FA0028ACD08378DE
:1041F800052B31D0062B3CD0022BA5D1BB7C062B3E
:10420800A2D1346A00232046FB833621FFF7E0FA67
:10421800002899D0C3788178427900791B0443EA51
:104228000163134343EA002003F04CFBA268606279
:1042380012F1100318BF1369A3623046FFF7A4FDFB
:1042480082E70190F86800283FF47EAF02F052F947
:104258000199F960398277E7BB7C012B2FD0033BAA
:10426800022B3FF671AF00233046FB83FFF7B6FB06
:104278006AE7BB7CDA1E022A02D9012B7FF464AFFD
:104288004FF000083046A7F81E80346A02F004F99F
:104298006549304602F06AF86349304602F0DEF8B4
:1042A8006149304602F0DEF8A37C0C2B03D00C23C6
:1042B80084F81380A3743046FFF7AEFC44E7346AF1
:1042C8000023E3622363636320463321FFF780FA08
:1042D80050B1C178837842790079090441EA0363CF
:1042E800134343EA002363643A212046FFF770FA38
:1042F800002800F09280C178837842790079090417
:1043080041EA0363134343EA0023A3643B212046A5
:10431800FFF75EFA00287DD0C1788378427900796A
:10432800090441EA0363134343EA0023E364A268F0
:1043380012F1100318BF1369A36201212046FFF789
:1043480047FA60B1C3788178427900791B0443EA5F
:104358000163134343EA002003F0B4FAE062032147
:104368002046FFF735FA60B1C37881784279007941
:104378001B0443EA0163134343EA002003F0A2FA53
:1043880020631C212046FFF723FA60B1C3788178A7
:10439800427900791B0443EA0163134343EA00208E
:1043A80003F090FA606306212046FFF711FA814670
:1043B80038B343789B08022BA36328D90223A3634D
:1043C8004FF000084FF0040B4FF0020A1BFB08A344
:1043D80009EB030119F803E04B78CA7888781B04C5
:1043E80043EA0E63134343EA002003F06BFA04EB3D
:1043F8008802A36BD06308F101085FFA88F8984532
:10440800E4D300233046FB83FFF7D4FA9CE6002B65
:10441800D6D1F6E7636CE36489E7636C5B08A36451
:1044280074E7388290E600BF745C030870B50546EF
:1044380082B0502002F006F9002873D050220021E3
:10444800044611F0C1FAFFF7ABF9606058B12E6A63
:104458002C622846FFF710FA58B16068FFF782F916
:10446800002363602E62204602B0BDE8704002F06F
:1044780041B8A38BA2691A4435210133A38382F87A
:10448800F010A38BA2691A4401210133A38382F897
:10449800F010A38BA2691A440B440821A38382F865
:1044A800F010A38BA2691A4439210133A38382F83F
:1044B800F010A38BA2691A4402210133A38382F866
:1044C800F010A38BA269298D1A44080A0133A3832B
:1044D80082F8F000A38BA2691A440133A38382F8FF
:1044E800F010A38BA2691A44FF2101332046A3834D
:1044F80082F8F010FFF7FCFAA18B6069F03189B2FD
:10450800FEF72AFE442208496068FFF73BF8616914
:104518006068064A00954323FFF76EF82846FFF7C0
:104528003BFA9AE702B070BD745C0308705C03083C
:1045380038B5046A5CB1A37C033B0A2B11D8DFE8C9
:1045480003F007070710101010071010060038BDF9
:10455800054601F0A1FF0023E3742846BDE8384072
:104568002CE50023E374BDE83840FFF755BB00BFD6
:10457800D0B130B5046A83B014B1A27C082A01D046
:1045880003B030BD0968A26A9142F9D10C22002318
:10459800A274E3740546FFF76FF930B1E37C142287
:1045A8000133E374E283EBE77047A38BA2691A44F3
:1045B80035210133A38382F8F010A38BA2691A4432
:1045C80001210133A38382F8F010A38BA2691A4456
:1045D8000B440421A38382F8F010A38BA2691A4428
:1045E80032200133A38382F8F000A38BA2691A4416
:1045F8000133A38382F8F010A06A03F061F9A38B5A
:10460800A2691A44010E0133A38382F8F010A38B28
:10461800A2691A44010C0133A38382F8F010A38B1A
:10462800A2691A44010A0133A38382F8F010A38B0C
:10463800A2691A440133A38382F8F000A38BA2690C
:104648001A44FF210133A383204682F8F010FFF7B4
:104658004FFAA18B6069F03189B2FEF77DFD61697F
:104668006068044A00954323FEF7C6FF2846FFF713
:1046780093F993E7705C030870B5046AA37C052B73
:1046880082B0064603D005220023A274E3743046A4
:10469800FFF7F2F80546002853D1A38BA2691A4404
:1046A80035210133A38382F8F010A38BA2691A4441
:1046B80001210133A38382F8F010A38BA2691A4465
:1046C8000B440321A38382F8F010A38BA2691A4438
:1046D80039210133A38382F8F010A38BA2691A440D
:1046E80002210133A38382F8F010A38BA269318DD4
:1046F8001A44080A0133A38382F8F000A38BA26945
:104708001A440133A38382F8F010A38BA2691A44D8
:10471800FF2101332046A38382F8F010FFF7E8F960
:10472800A18B6069F03189B2FEF716FD6169606896
:104738000096432304F12402FEF75EFF3046FFF79C
:104748002BF9E37C0133DBB2092BE37412D8C3EBFA
:10475800431203EB8202120192B2094B02F2F312E6
:1047680083FB0213D217C2EB63139BB22846E38381
:1047780002B070BD28232846E38302B070BD00BF95
:10478800D34D6210164B10B51C683CB91BE01A8C4F
:10479800511E012A198417D02468A4B1236A002B5A
:1047A800FAD05A8C511E012A5984F0D19B7C03F00F
:1047B800FB02012A01D00A2BEED12046FFF7A6F909
:1047C8002468002CEAD110BD9B7C03F0FB02012A6F
:1047D80001D00A2BE0D12046FFF74EFFDCE700BFEF
:1047E800EC82002070B5046AA37C0D2B82B00546CC
:1047F80003D00D220023A274E37400236362E362F2
:10480800A36263632363E364A3646364A3632846C6
:10481800FFF732F80646002833D1A38BA2691A4461
:1048280035210133A38382F8F010A38BA2691A44BF
:1048380001210133A38382F8F010A38BA2691A44E3
:104848000B440721A38382F8F010A38BA2691A44B2
:10485800FF210133A383204682F8F010FFF748F9BF
:10486800A18B6069F03189B2FEF776FC61696068F6
:104878000095432304F12402FEF7BEFE2846FFF705
:104888008BF8E37C0133DBB2092BE37421D8C3EB4B
:10489800431203EB8202D20092B20F4B02F2F312E0
:1048A80083FB0213D217C2EB63139BB2E383284640
:1048B80001F0F2FD2846094901F058FD284607494C
:1048C80001F0CCFD2846054901F0CCFD304602B088
:1048D80070BD1423EAE700BFD34D6210745C03086F
:1048E80038B5264B1C681CB3002503E0013BD38375
:1048F8002468ECB1226A002AFAD0D38B012BF5D8B0
:10490800F6D1937CD5830C2B1CD0062B1AD0012B07
:104918000FD0082B1AD0052B29D0042B1DD0032B20
:10492800E6D1D37C012B204625D9FFF775F9DFE7BF
:1049380038BDD37C052B204602D8FFF725FAD7E7E8
:10494800FFF750FF2046FFF767F9D1E7D37C012B2B
:10495800204609D9FFF742F8CAE7D37C082B20463E
:10496800EED8FFF7D3F8C3E7FFF724F8C0E72046EF
:10497800FFF782FEBCE7FFF721FBB9E7EC820020D6
:1049880038B590F83130056A23F0080380F83130E3
:104998005DB10446686818B1FEF7E4FE00236B6059
:1049A800284601F0A7FD0023236238BD002841D026
:1049B80070B5028D90F83130056A23F00803B2F51E
:1049C800107F80F8313033D304463DB3686808B1AE
:1049D800FEF7C8FE50220021284610F0F5FFFEF72A
:1049E800DFFE0646686040B344221749FEF7CAFD59
:1049F800432215496868FEF779FE6868134922461C
:104A0800FEF7ACFE2046FFF707F970B994F831308D
:104A180043F0080384F8313040B270BD502001F0F3
:104A280011FE054620B12062D4E72046FFF7A8FF13
:104A3800FF20F1E7F62040B27047284601F05AFD02
:104A48002662FF20E8E700BF745C030835410208CE
:104A58002DE9F843A54F3B78DD06044640F18C80EC
:104A6800036E7A68B0F85C50416E981A0028C0F25C
:104A7800B9809342BB6800F08981994200F0B08107
:104A8800E06C1A1A002A40F36F81A16D591A0029A7
:104A980040F3BB800023A4F86C30636F002B42D036
:104AA800DFF848820DE06868FEF780FBB4F87030E4
:104AB800181AA4F87000284601F062F8636F002BFA
:104AC80031D01B69BD68586802F0FAFE636F1A6935
:104AD8009E898146908902F0EFFE10F0030018BF0E
:104AE8000120C9EB05050644AD1B002D1BDBD8F8DA
:104AF8000830A26D9B1A002B15DC656F2B68636765
:104B08006868FEF753FBB4F86C30002BCBD02B69E8
:104B1800988902F0D1FEC307C5D5B4F86C30013BC3
:104B2800A4F86C30BFE7E36B33B3226CB968521A50
:104B3800002A21DA6E49B4F84420086842F3CC010F
:104B4800C31A591A89B28B188AB2160444BF49424B
:104B58008AB2B4F8461041F38D00091A9BB20A4490
:104B680092B2A4F8443043F3CC0313440021A4F8D0
:104B78004830A4F84620E1633B8A5C4DDBB1616AAA
:104B88006A688E1A012E05D4481C801AC31A002B95
:104B980040F30381531A002BC0F22981238DC3F1FE
:104BA800010313445B1A002B40F3A4802046BDE8A0
:104BB800F843FDF741BF6B68616A5A1A002A06DBA1
:104BC8005A1C208D531A1B1A002B40F3DD8094F8D1
:104BD800223043F0020384F822302046BDE8F8432F
:104BE800FDF756BFF868BB68C089A4F85C00226668
:104BF800636600283FF444AF94F89C20002A3FF4F1
:104C08003FAF002284F89C203AE794F82210480726
:104C180007D521F00401B4F8540084F82210A4F850
:104C28005200B4F86E00B4F84610B4F94460257C1C
:104C3800E36492B201EBE60310440021032DA4F8CB
:104C48006C20A4F86E00A4F8483084F84A1084F860
:104C5800501026D9B4F85220B4F854309342238F18
:104C68009CBF5B4393FBF2F313449BB29A4218D266
:104C7800A4F8523015E02B69988902F01DFEC2078E
:104C880004D5B4F86C30013BA4F86C306868FEF7C2
:104C98008DFAB4F87030181AA4F87000284600F09D
:104CA8006FFFA36F002B00F0F2801B69586802F0B9
:104CB80007FEA36F1A699E890546908902F0FCFDDC
:104CC800BB6810F0030018BF01200644ED1A3544F4
:104CD800002D00F3E380A56F2B68A3676868FEF7D3
:104CE80065FAB4F86C30002BD0D0C4E7CC52002061
:104CF800D88200208A427FF459AF7B6A3D8C98891C
:104D0800784E02F0D9FD10F0030018BF01202B18CF
:104D1800228D9BB293423B8200F295807968714D57
:104D2800D21A0B4422856362204600F04BFEBB6911
:104D38001A8912B10022AB62AA617B6A694D98890F
:104D480002F0BAFDC10705D595F82C3043F02003D1
:104D580085F82C3094F82230DA0771D443F0010337
:104D680084F82230BDE8F8833A8A0026A4F86C60FB
:104D780032B9B4F85C60626E29443244914246D03C
:104D8800002384F8503088E6BDE8F883C81A002864
:104D9800BFF673AEF868C08927E7AD696A8996429D
:104DA800334640F381802989891B89B200206881B4
:104DB80029812D689B1A6A899A42F8DB594209B2FF
:104DC8002846FEF7DDF878683B8C626A796A6D6878
:104DD800FD6103449B1A4A603B847A601146DDE614
:104DE800FB68D88985420B46BFF44AAEFDE694F8C5
:104DF800223043F0020384F822302046FDF748FEB3
:104E08007A68616A531A002BFFF6D0AEC6E6B4F989
:104E18003620002AB4DB9842B2D194F850300133DE
:104E2800DBB2032B84F8503056D9B4F85220238FC4
:104E380013449BB29A42BFF430AEA4F852302CE629
:104E480023F00103C5E6736A988902F035FDC507AA
:104E580030D4228D7B6A3A849889224D02F02CFD49
:104E68008007298C02D5013989B22984B869FEF7EF
:104E780073F97B6A3D8C988902F01EFD10F00300DF
:104E880018BF01202B189BB2228D3B8246E74FF6B4
:104E9800FF73E386002384F83430FEE5A36F002B0C
:104EA800F5D00023E386F5E7714209B22846FEF7FC
:104EB80067F888E7736A4FF6C0709D8902F0F8FCBE
:104EC800766A0540B08902F0F7FC00F03E0002F077
:104ED800EFFC2843B081BCE77FF4DFAD2046FDF747
:104EE800B3FFDAE5CC520020F8B5224CE568064657
:104EF800A88902F0E1FCC0F30F30052800D8F8BDFE
:104F0800E368988902F0D8FC000B0538800080B26D
:104F18000028F4D005F11402002340F2B357D15C05
:104F2800012940F2B4551BD0E9D302291BD1D4186A
:104F380061780429E3D1D91C8142E0DA94F802E0CF
:104F4800E17841EA0E214C1EA4B20433BC4288BF6A
:104F580029469BB231809842D1D9D15C0129E3D14D
:104F680001339BB2F7E7D11849780029C7D00B4421
:104F78009BB2F0E7CC5200202DE9F04F4468B04DC9
:104F880083B0064620882C630F4602F095FC2B6BF5
:104F9800C0F3032004EB80041888EC6002F08CFC5A
:104FA800C0F30320810049423046FDF7E9FF10B9FC
:104FB8003389132B05D8304603B0BDE8F04FFEF710
:104FC80013B8286B3946103001F0B0FB0028F2D135
:104FD8002B6B4FF070401C6902F072FC04404FF0DC
:104FE800604002F06DFC8442E5D0EB68988902F0DD
:104FF80063FC000BC0EB8030810009B23046FDF73E
:10500800BFFF04460028D6D1EF68388802F054FC68
:10501800D5F80C903880B9F8020002F04DFCEF6822
:10502800A9F80200786802F04BFCD5F80C9078607B
:105038006860D9F8080002F043FCEF68C9F8080076
:10504800A860F88902F038FCEB68F881988902F0CA
:1050580033FC5FFA80FE1EF00303B6F808A0794A15
:10506800EF68D2F8009018BF012353441FFA83F861
:105078000EF03F01A5F810802970B9F1000F6DD02E
:105088002046D5F830C03B884C4604E0E26820460C
:10509800002A63D01446228C9A42F7D1B4F818B08B
:1050A8007A889345F2D1DCF80CB062685A45EDD1A4
:1050B800DCF810B022685A45E8D128B1614AE368A3
:1050C800C3601460C4F80C90E26F7068A5F820A063
:1050D8000023AE616F626B61AB6285F82C30E861CA
:1050E80062B1D4F88470002F00F03B8221466069D9
:1050F800B84700287FF45FAF2978E067524E4B0726
:10510800346069D5237C022B00F07F826B68626A69
:105118009B1A04D4228D9B1A002B40F37B8295F8AE
:105128002C301F0740F16081D4F890301BB16FF02C
:105138000501606998472146424800F0E7FE21468C
:105148000220FDF719FAA8693D4D0024346010B11A
:10515800FDF74AFFAC6103B0BDE8F08F3B4B186820
:10516800002800F077813C882A6B03E0C06800289B
:1051780000F07081038CA342F8D1038B798899429F
:10518800F4D1D2F80CC043686345EFD1D2F810C00F
:1051980003686345EAD11EF0040F7FF40CAF1EF0DC
:1051A800020F00F0F1826D68436A254FEB1A06D4AE
:1051B800B0F828E0CEEB0303002B40F3ED82B8F102
:1051C800000F3FF4F8AE90F8223043F0020380F865
:1051D8002230FDF75DFCEEE68F0704D5237C023B09
:1051E800012B00F206821A4A0023126884F89D30C7
:1051F800226304F13800FFF777FE237C023B072B7C
:105208008DD8DFE813F0D500B5009E007F0055006B
:105218009E00270008002046FFF71AFC2B78084A52
:10522800DB067FF57CAFA16D936899427FF477AF79
:1052380092F82C3043F0100382F82C3071E700BF4D
:10524800CC520020D4820020D0820020E8820020A6
:10525800D88200202046FFF7FBFB2A78834BD20632
:105268007FF55DAF9B68A26D9A427FF458AF2046E8
:1052780000F044FE7E4B7E4A1B689C4200F05B8235
:105288007C4A13605BB1D968A14204D121E2D96894
:105298008C4200F01D820B460029F8D11360764A33
:1052A80095F82C301168E1600A211460217438E700
:1052B8002046FFF7CDFB95F82C3099067FF531AFE6
:1052C80094F8223043F0020384F822302046FDF798
:1052D800DFFB204600F012FE654B654A1B689C42C6
:1052E80000F02982634A1360002BD8D0D9688C4219
:1052F80004D1EEE1D9688C4200F0EA810B4600291E
:10530800F8D1CBE72046FFF7A3FB95F82C30574A96
:10531800990640F1B7811378DF0604D59368A26D2A
:105328009A4200F00B8294F8223043F0020384F88A
:1053380022302046FDF7ACFB0823237495F82C3067
:10534800EFE62046FFF784FB95F82C30474F980688
:105358007FF5E7AE94F8223043F0020384F8223058
:105368002046FDF795FB072297F82C302274D8E6E3
:105378002B783E4FD90640F17681E36CB868DB4361
:10538800C34204D4A36DC31A002B40F3B181EB6868
:105398002A6B198801912F8A69685B8800933944C0
:1053A80002F10C031032FDF7BBFC95F82C30B8E67F
:1053B8002B782E4F03F01202122A00F08D81D806A6
:1053C8007FF5ADAEEB682A6B19880191288A696868
:1053D8005B880093014402F10C03A8681032FDF7C2
:1053E8009FFC95F82C309CE6D8063FF5A4AEB4F89F
:1053F8006C202AB1D4F8803013B1214660699847EF
:10540800AA6A1A4B92B11B78190703D5537B43F04C
:1054180001035373D4F88470002F00F01E81002319
:1054280021466069B84708B1AB6AE36795F82C3044
:105438009A0609D5D4F88470002F00F02F81002334
:105448001A4621466069B847002320463360FDF7B5
:105458001FFB78E6DFF824C0DCF80000002800F025
:10546800E6802A6B0446002114E000BFCC520020DD
:10547800D4820020E0820020E8820020DC82002024
:10548800D2F810904B4508D0E3682146002B00F075
:10549800CE801C462368002BF2D1B7F80290238BEC
:1054A8004B45F1D121B1E368CB60CCF80040E06016
:1054B8001EF0100F40F0F9801EF0020F3FF47BAD94
:1054C800607C00F05FFE074600283FF474AD2B6B4C
:1054D800218B13F1100218BF1A6902600183E86872
:1054E8006A6890F801E0057813F10C0118BFD968D3
:1054F8002389796045EA0E21398423F06603032164
:10550800551C3974DB05AC497D62FD62DB0DC5892C
:1055180009686069E4693B81013AA74B3A6678619A
:10552800FC61F96007F13800A7F85C50A7F85450FF
:105538001F60FFF7D9FC391D388F00F0BFFE00242B
:1055480001233887224601930094214612233846C6
:10555800FDF754F8002840F0B6803846FDF798FA71
:1055680029E53B463846214600F06AFDC1E5B4F816
:105578006E207B68E064F968581C01326062E06262
:10558800A4F86E208A7BC97B208F42EA0122013B66
:105598000421A4F85C2023662174611800F08EFEB3
:1055A800B4F852102087012900EB800203464FEA25
:1055B800420208BF4300A06FA4F85420B4F870203A
:1055C8000168A16708BF9BB2A4F85230531EA4F823
:1055D8007030002900F0EB800023E38684F84A301D
:1055E80000F0CEFAD4F888301BB100222146606959
:1055F800984794F8223043F0020384F8223020467A
:10560800FDF746FA95F82C308BE5A26DAB689A4207
:105618007FF485AD95F82C3094F8222043F00803E8
:1056280022F0010285F82C3084F8222079E5B88927
:1056380002F042F943073FF5BEACEB682A6B1988C4
:1056480001912C8A69685B88A8680093214402F15B
:105658000C031032FDF764FBADE43B4638462146A7
:1056680000F0EEFCDFE69B077FF559AD636A7A68C8
:10567800013B93427FF453AD2046FDF7BFFB97F8FB
:105688002C304EE51178C8067FF54BAD9268A16DB8
:1056980091427FF446AD0622227442E53B463A46E3
:1056A8003846214600F0CCFCCEE66968A8683B88FD
:1056B8000193CDF8009002F10C03414401301032FF
:1056C800FDF72EFB77E42146384600F00DFD72E425
:1056D8001360E268DA60E2E5A36F1B69586802F0BC
:1056E800EFF8BB68013098423FF441AF3B7866E67B
:1056F800E369042222742BB100222146606998478D
:1057080000283CD12046B4F85270FFF7A1F9B4F84C
:105718006C3013B1013BA4F86C30228F95F82C3013
:10572800012F04BF520092B2A4F852209A06234FC8
:105738007FF5F7AC0EE6E3681360B0E594F8223025
:1057480043F0020384F822302046FDF7A1F92046F1
:1057580000F0D4FB184B184A1B689C42EBD0184A3F
:105768001360002B3FF49BADD9688C4203D1B0E79E
:10577800D9688C42ACD00B460029F9D18EE5204679
:10578800012100F0B1FCDEE41EF0010F3FF417AD7B
:105798000C4B1B68036312E58DE8120002F10C0341
:1057A80008EB0501B8681032FDF7BAFA03E44FF6C2
:1057B800FF73E38614E700BFD4820020CC52002098
:1057C800E0820020D88200206FF00400704700BFFC
:1057D80070B41B491B4E1C4A1C4B0968308814685E
:1057E8001D68013080B210F4004F18BF4FF480508C
:1057F80051B10B8B8342F4D00B4602E01A8B8242E4
:10580800EFD0DB68002BF9D154B1238B8342E8D069
:10581800234602E01A8B8242E3D0DB68002BF9D1E1
:1058280055B12B8B8342DCD02B4602E01A8B824287
:10583800D7D0DB68002BF9D1308070BC704700BF2F
:10584800D482002020000020E8820020DC82002092
:10585800F8B5037C002B5CD106460D46002A3DD0E6
:105868002D4B1B6813B90EE0DB6863B11C8B9442A7
:10587800FAD1196821B11DB1286808B18142F3D164
:10588800F52040B2F8BD254B1B6813B911E0DB6861
:105898007BB1198B9142FAD119680029F0D0002DFB
:1058A800EED028680028EBD08142E9D0DB68002BD5
:1058B800EFD11B4F3C68ACB1234601E0DB688BB1EC
:1058C800198B9142FAD119680029D9D0002DD7D067
:1058D80028680028D4D08142F0D1D1E7FFF778FFBB
:1058E8000246BDE70F4B1B6813B909E0DB683BB103
:1058F800198B9142FAD1296818688842F6D1BFE716
:1059080015B12B6803B133603283F4603E60002028
:10591800B7E7F320B5E700BFDC820020D48200207F
:10592800E4820020E882002038B5037C002B3DD1BA
:1059380004460320FCF710FE0546002836D02389CC
:105948006269218B426143F00203012201830381D2
:105958000274E37AC372174BA27A82721A682168BA
:10596800016094421FD014490A6052B1D368A3421F
:105978001ED02BB1DA68944211D01346002BF9D10E
:105988000B600023E36021460220FCF7F5FD0B4B7A
:105998000B4A19681D60E960EA61284638BD0B604A
:1059A800E268DA60EDE7E2681A60EAE7002038BDED
:1059B8001346F5E7E4820020E0820020DC82002024
:1059C800D1570208F0B4058DC46A018F466A2B1BB3
:1059D80040F2B457B942024603EB060094BF431A9B
:1059E800C31B002B02DB5585F0BC7047331B002B13
:1059F80004DD002318465385F0BC7047A41B54856A
:105A08000020F0BC704700BF038D194440F668328F
:105A180089B29142F0B424D801850B46466AC56A1A
:105A2800028F40F2B457741BBA42234494BF9A1AA7
:105A3800DA1B002A0DDB40F2D922934241850EDDA4
:105A480090F8223043F0020380F82230F0BCFDF7D2
:105A58001FB8002CCBBF0023AD1B43854585F0BC88
:105A68007047134602851146D8E700BFF0B5047C9D
:105A780083B0002C76D1002976D004461E46038BCD
:105A8800086860600D462284002B62D03749384A86
:105A98004B6812681A4402F1FF3E40F6683300274B
:105AA80028464FF40675A265C4F84CE0C4F868E0CF
:105AB8006762E76223856385A4F85C3025874A60BE
:105AC80000F052FE10B1028D002A34D12A4641F26C
