:020000040800F2
:1000000000000220F9CC0008090400080D040008D3
:10001000110400081504000819040008000000007D
:100020000000000000000000000000001D040008A7
:10003000210400080000000025040008490400080D
:1000400041CD000841CD000841CD000841CD000858
:1000500041CD000841CD000841CD000841CD000848
:100060002904000841CD000841CD000841CD000819
:1000700041CD000841CD000841CD000841CD000828
:1000800041CD000841CD000841CD000841CD000818
:1000900041CD000841CD000841CD000841CD000808
:1000A00041CD000841CD000841CD000841CD0008F8
:1000B00041CD000841CD000841CD000841CD0008E8
:1000C00041CD000841CD000841CD000841CD0008D8
:1000D00041CD000841CD000841CD000841CD0008C8
:1000E00041CD000841CD000841CD000841CD0008B8
:1000F00041CD000841CD000841CD000841CD0008A8
:1001000041CD000841CD000841CD000841CD000897
:1001100041CD000841CD000841CD000841CD000887
:1001200041CD000841CD000841CD000841CD000877
:1001300041CD000841CD000841CD000841CD000867
:1001400041CD000841CD000841CD000841CD000857
:1001500041CD000841CD000841CD000841CD000847
:1001600041CD000841CD000841CD000841CD000837
:1001700041CD000841CD000841CD000841CD000827
:0801800041CD000841CD00084B
:10018800044B05481B1A062B02D9044B03B1184728
:10019800704700BF7B0400207804002000000000A6
:1001A80005490648091A891001EBD171491002D096
:1001B800034B03B1184770477804002078040020E7
:1001C8000000000010B5064C237843B9FFF7D8FFAC
:1001D800044B13B10448AFF300800123237010BD12
:1001E800780400200000000094D9000808B5084BE6
:1001F8001BB108490848AFF300800848036813B9E1
:10020800BDE80840CCE7064B002BF9D09847F7E744
:10021800000000007C04002094D900087404002029
:1002280000000000154B002B08BF134B9D46A3F59B
:10023800803A00218B460F461348144A121A0DF0D3
:10024800EDF80F4B002B00D098470E4B002B00D039
:1002580098470020002104000D000D48002802D016
:100268000C480DF09FF90DF0B1F8200029000CF0B2
:10027800B3FC0DF09BF800BF000008000000000070
:10028800000000000000000078040020680600203C
:10029800ADD50008B9D50008364B37481A68002193
:1002A80042F001021A6099601A6822F0847222F4FE
:1002B80080321A6058601A6882B022F480221A606C
:1002C800D960009101911A6842F480321A601A4686
:1002D80003E0009BB3F5A06F09D0136803F4003363
:1002E8000193009B01330093019B002BF1D0214B1C
:1002F8001B6813F4003318BF01230193019B012BE2
:1003080005D01E4B4FF000629A6002B07047194B3F
:100318001B491A6C1B4842F080521A640A6842F45E
:1003280080420A609A689A609A6842F400429A6029
:100338009A6842F4A0529A6058601A6842F0807233
:100348001A601A4611680B4B8901FBD50E4A40F218
:10035800056111609A6822F003029A609A6842F077
:1003680002029A601A46936803F00C03082BFAD12C
:10037800C7E700BF003802401030002400ED00E05D
:100388000070004008544007003C02401848836849
:1003980003F00C03042B28D0082B09D0154B144A62
:1003A80015499268C2F303128A5CD3400B61704707
:1003B8004368416813F4800F436818BF0F4801F081
:1003C8003F020CBF0B49B0FBF2F1C3F3881308BF1F
:1003D800B1FBF2F101FB03F2054B5B68C3F3014388
:1003E80001335B00B2FBF3F3D9E7044BD7E700BF57
:1003F800003802400024F4000400002000127A00B3
:10040800704700BFFEE700BFFEE700BFFEE700BF82
:10041800FEE700BF704700BF704700BF704700BFCE
:1004280008B5042001F09AFB00B908BD72B60AF0BD
:1004380009FE62B60420BDE8084001F09DBB00BF7C
:1004480000F00EB8704700BF10B50446622000F0F7
:10045800C9FA616C2088BDE8104000F075BB00BF88
:10046800024A13680A331360704700BF94040020DF
:100478002DE9F04F06460F46934656EA070283B029
:100488003ED00BF1FF381946DA17C246CDE9001203
:10049800002500E04D4630463946DDE900230CF0E2
:1004A8000FFA092A02F15704DABF3032D4B2E4B2A3
:1004B80030463946DDE900230AF8014F0CF000FA0E
:1004C80006460F4656EA070305F10109E2D17DB158
:1004D8000BEB05024146002300E0147818F8010FE1
:1004E80002F801090133E81A834201F8014FF4DBED
:1004F8004B46002248460BF8032003B0BDE8F08FB6
:1005080000239946F5E700BF0028F0B536DB3BD05D
:100518004FF0000C4C1E2746002600E01E4690FBBC
:10052800F2F502FB1500092800F1570ED6BF30304E
:100538005FFA8EF0C0B207F8010F731C2846002D31
:10054800ECD1BCF1000F16D01D46B01C2D234B5525
:1005580003466DB14E19002214F8017F96F800E0A9
:1005680006F801790132AF1ABA4284F800E0F3DBE9
:100578000022CA54F0BD35461846EAE70A2AC7D110
:1005880040424FF0010CC5E70346F1E72DE9F04F73
:10059800002A89B041DD4FF0000A904606460D1F3B
:1005A800544602F1FF396F464FF0300B55F8040FEF
:1005B80040BB8DF801008DF800B04FF0300E0120DF
:1005C8000AF1FF313144C7EB0A0C0DF10102002397
:1005D80001E012F801EB01F801EF013383420CEB63
:1005E800020EF6DB4C4504F10104B4BF2C230A23A8
:1005F800A04506F80E300EF1010AD7D1504609B0D1
:10060800BDE8F08F0A223946FFF77EFF002802DD99
:100618009DF800E0D4E7D646E4E74FF0000A5046DC
:1006280009B0BDE8F08F00BF2DE9F04F002A89B06E
:1006380040DD002491460746A1F108062546A34659
:1006480002F1FF3AE846F6E9020150EA010328D12F
:100658004FF030038DF800308DF801B04FF0300EB8
:100668000120611E3944C8EB040C0DF1010200237E
:1006780001E012F801EB01F801EF013383420CEBC2
:100688000204F6DB554505F10105B4BF2C230A2306
:10069800A9453B5504F10104D5D1204609B0BDE870
:1006A800F08F0A234246FFF7E3FE0028EADD9DF8B3
:1006B80000E0D6E70024204609B0BDE8F08F00BF6F
:1006C80010B550EA010E02D0BDE81040D0E614463D
:1006D8000023302222706370012010BD00B113E79F
:1006E8000B4610B43022587010BC0A7001207047B5
:1006F8004B1E002B0FDD014470B400220C46013262
:10070800013B11F8015D067804F8016D9A4200F882
:10071800015BF4DB70BC704730B5012183B0042065
:1007280001F09EF84FF4E0550023032201246946A6
:10073800064800958DF804408DF806308DF807308E
:100748008DF8052000F0E8FD03B030BD0008024038
:10075800F0B51E4E1E4F87B0304601F09BFF0121B9
:10076800084601F07DF80024022301253846694631
:100778008DF804308DF8053000958DF807508DF808
:10078800064000F0C9FD38462146082200F056FE12
:1007980029464FF4002001F08DF808234FF4E13288
:1007A8000DEB030130460292ADF81230ADF80C4063
:1007B800ADF80E40ADF81040ADF8144001F0CEFF92
:1007C8002946304602F050F807B0F0BD004C004012
:1007D8000000024000B5012183B0084601F040F84E
:1007E800032200236946064800928DF805208DF8FB
:1007F80004308DF8073000F08FFD03B05DF804FB7E
:10080800000002402DE9F047DFF86081564D8AB0BC
:10081800404605F001F901214FF48050002401F011
:1008280057F84FF0070A4FF400722023404605A9F5
:100838004FF48276ADF81E20ADF82030ADF8166082
:10084800ADF81440ADF81840ADF81A40ADF81C40AA
:10085800ADF82240ADF824A005F014F901210846AE
:1008680000F0FEFF0227E023284601A90193012694
:100878004FF010098DF80A408DF80B408DF808707C
:100888008DF8097000F048FD01A92846CDF80490BC
:100898008DF80A408DF809708DF8086000F03CFD6D
:1008A80005222846114600F0C9FD284605220621E2
:1008B80000F0C4FD05225146284600F0BFFD214640
:1008C800404605F0D7F94946284600F0A7FD3146CD
:1008D800404605F087F93146304600F0C1FF4FF039
:1008E800080801A928464FF004098DF808608DF81A
:1008F8000A408DF809708DF80B60CDF8048000F07F
:100908000BFD4146284600F089FD03230DEB090144
:1009180028468DF809308DF808408DF80B70CDF811
:10092800049000F0F9FC3946204600F0AFFD03A81A
:10093800CDF80C908DF810408DF811808DF812606C
:1009480001F0AEF868468DF800808DF801408DF80A
:1009580002408DF8036005F015FB4FF4FA700AF0B9
:10096800E7FF0AB0BDE8F087000002400030014010
:1009780008B5FFF7D1FEFFF7EBFEBDE80840FFF72B
:1009880041BF00BF67280ED0722807D0622800D068
:1009980070474FF48051064800F040BD4FF4806125
:1009A800034800F03BBD4FF40061014800F036BD3C
:1009B8000008024067280ED0722807D0622800D0AD
:1009C80070474FF48051064800F02ABD4FF480610B
:1009D800034800F025BD4FF40061014800F020BD38
:1009E8000008024067280ED0722807D0622800D07D
:1009F80070474FF48051064800F01CBD4FF48061E9
:100A0800034800F017BD4FF40061014800F012BD23
:100A18000008024000B541F2537487B0962105944E
:100A280000E000BF059B5A1E002B0592F9DC013936
:100A3800F5D14FF400612A4800F0F0FC96210494A7
:100A480000E000BF049B5A1E002B0492F9DC013918
:100A5800F5D14FF48061224800F0E0FC9621039420
:100A680000E000BF039B5A1E002B0392F9DC0139FA
:100A7800F5D14FF480511A4800F0D0FC9621029429
:100A880000E000BF029B5A1E002B0292F9DC0139DC
:100A9800F5D14FF40061124800F0C2FC9621019490
:100AA80000E000BF019B5A1E002B0192F9DC0139BE
:100AB800F5D14FF480610A4800F0B2FC9621009409
:100AC80000E000BF009B5A1E002B0092F9DC0139A0
:100AD800F5D14FF48051024800F0A2FC9EE700BF18
:100AE80000080240BFF34F8F0449054BCA6802F45F
:100AF800E0621343CB60BFF34F8FFEE700ED00E0E9
:100B08000400FA05002882B041F253710ADD019110
:100B180000E000BF019B5A1E002B0192F9DC01384E
:100B28000028F4DC02B0704710B50446802105485F
:100B380001F090FF0028F9D021460248BDE8104096
:100B480001F0C6BE004C004030B583B05324522398
:100B5800ADF8020008468DF800408DF801300BF022
:100B68008FFE4523ADF804008DF8063020460DF1C0
:100B780006056C4601E014F8010FFFF7D5FFAC42FB
:100B8800F9D103B030BD00BF49B138B504464518A6
:100B980014F8010BFFF7C8FFAC42F9D138BD704714
:100BA80008B501214FF4006000F0D8FE00214FF491
:100BB8000060BDE8084000F0D1BE00BFF0B5836812
:100BC8000B4F4668C56804687A68016990F814E0B4
:100BD80043EA0600284322F4FD43204340EA010289
:100BE80023F07F0313434EEA03037B60F0BD00BF8D
:100BF800002C014000230375036043608360C360D9
:100C080003617047014B1860704700BFA080254200
:100C1800014B1860704700BF002C0140024B186858
:100C280000F00300704700BF002C01400A49036828
:100C380030B48B6083684468C568CA6800691C431F
:100C48002C4322F4FF6323F0070344EA0002134312
:100C5800CB6030BC704700BF002C0140002303600C
:100C680043608360C3600361704700BF014B18692C
:100C7800C0B27047002C0140044B82B003440022EC
:100C880001920193019B186802B07047142C01402F
:100C9800094A036830B45362436893628568C1683F
:100CA8000469D36A406929432143014323F0F703C8
:100CB8000B43D36230BC7047002C014000234FF037
:100CC800FF3280E80C008360C360036143617047B2
:100CD800014B186B704700BF002C0140014BD3F843
:100CE80080007047002C0140014BC3F8800070471A
:100CF800002C0140014B986C704700BF002C01404C
:100D0800014B1860704700BFA0852542014B186051
:100D1800704700BFA4852542014B1860704700BF8B
:100D2800A8852542014B1860704700BFAC85254255
:100D3800014B1860704700BFAC812542014B186019
:100D4800704700BFB081254200F00100024B80F0DF
:100D580001001860704700BFB4812542014B18603C
:100D6800704700BFB8812542014B1860704700BF2B
:100D78008C85254229B9054AD36B23EA0000D06344
:100D88007047024BDA6B1043D8637047002C014060
:100D9800014B9863704700BF002C0140034B5B6B0D
:100DA800034214BF01200020704700BF002C0140FF
:100DB800FFF7F4BF014B9863704700BF002C014058
:100DC80008B5174B984212D0164B98421BD0164BB9
:100DD800984200D008BD01214FF4000000F0B0FD9A
:100DE80000214FF40000BDE8084000F0A9BD012132
:100DF8004FF4001000F0A4FD00214FF40010BDE8EE
:100E0800084000F09DBD01214FF4800000F098FDDE
:100E180000214FF48000BDE8084000F091BD00BFFC
:100E28000054004000580040005C0040F0B5054602
:100E380085B068460E46AC8800F09CFC029B3248A0
:100E48003268DFF8CCE0A0FB031024F03F04240450
:100E5800800C240C87B23C43AC80298821F0010126
:100E68000904090C7245298024D85200B3FBF2F317
:100E78009BB2032B07F1010798BF04232F84AB8390
:100E88002888B7887289B489318980B240F0010016
:100E980028802B8823F4816323F002031B043A4340
:100EA8001B0C134344EA01029BB292B22B802A81A5
:100EB80005B0F0BDF4884BF6FF718C421DD002EBF3
:100EC800820202EB8202B3FBF2F39BB243F480434B
:100ED800C3F30B020AB943F001034FF496710B4CAC
:100EE80001FB00F284FB0201D217C2EBA11201320E
:100EF80092B243F400432A84C1E702EB4202B3FBF7
:100F0800F2F39BB2E4E700BF83DE1B43D34D6210CC
:100F1800A0860100002310B44BF6FF7141F288341B
:100F28004FF480420460C1808281838003814381C1
:100F380010BC7047038829B923F001031B041B0C5C
:100F4800038070479BB243F001030380704700BFE2
:100F5800038829B923F480731B041B0C0380704792
:100F68009BB243F480730380704700BF038829B99C
:100F780023F400731B041B0C038070479BB243F4DB
:100F880000730380704700BF22B901F0FE0189B2E7
:100F98000182704741F0010189B20182704700BFA8
:100FA800038829B923F480631B041B0C0380704752
:100FB8009BB243F480630380704700BF83899BB270
:100FC80001F0FE0123F0FE0319438181704700BF41
:100FD800838929B923F001031B041B0C8381704703
:100FE8009BB243F001038381704700BF038829B98E
:100FF80023F040031B041B0C038070479BB243F093
:1010080040030380704700BF038819B9C3F30E0378
:10101800038070476FEA43436FEA53439BB20380F0
:10102800704700BF038829B123F080031B041B0C01
:10103800038070479BB243F080030380704700BF72
:10104800B1F5804F838B05D023F480431B041B0C20
:10105800838370479BB243F480438383704700BF08
:10106800B1F5005F038805D023F400531B041B0C63
:10107800038070479BB243F400530380704700BF5E
:10108800038829B923F010031B041B0C0380704745
:101098009BB243F010030380704700BF0182704782
:1010A800008AC0B2704700BF038829B923F480536F
:1010B8001B041B0C038070479BB243F480530380CE
:1010C800704700BFB1F5006F038805D023F40063B3
:1010D8001B041B0C038070479BB243F4006303801E
:1010E800704700BFFFF7EEBF038829B923F020033C
:1010F8001B041B0C038070479BB243F02003038042
:10110800704700BF008BC0F307207047838829B958
:1011180023F400631B041B0C838070479BB243F4C9
:1011280000638380704700BF838829B923F4805304
:101138001B041B0C838070479BB243F4805383804D
:10114800704700BF82B0002301930190019B1944AE
:101158000191019B188880B202B0704783889BB2C6
:101168001AB923EA010181807047194381807047C9
:10117800838A008B9BB243EA004321F07F4203EA53
:101188000200401AB0FA80F040097047838A028B47
:1011980098B240EA024020F07F40704782B00023B6
:1011A8000A0F0093019301900092009B21F07F4168
:1011B80053B1019B14330193019B1B68194214BF5F
:1011C8000120002002B07047019B1833090C0193DD
:1011D800F2E700BFC94389B2818270478388808A59
:1011E80080B208409BB206D003F4E06313EA1143CF
:1011F80014BF012000207047C94389B2818270471B
:1012080008B53C4B984224D03B4B98422BD03B4BE3
:10121800984232D03A4B984239D03A4B984240D013
:10122800394B984247D0394B98424ED0384B984268
:1012380055D0384B984200D008BD01214FF480703A
:1012480000F054FB00214FF48070BDE8084000F026
:101258004DBB0121084600F049FB00210120BDE8F3
:10126800084000F043BB0121022000F03FFB0021B1
:101278000220BDE8084000F039BB0121042000F03D
:1012880035FB00210420BDE8084000F02FBB0121F8
:10129800082000F02BFB00210820BDE8084000F0E2
:1012A80025BB0121102000F021FB00211020BDE802
:1012B800084000F01BBB0121202000F017FB002193
:1012C8002020BDE8084000F011BB0121402000F0BB
:1012D8000DFB00214020BDE8084000F007BB0121BC
:1012E800802000F003FB00218020BDE8084000F0CA
:1012F800FDBA00BF0000024000040240000802409E
:10130800000C024000100240001402400018024085
:10131800001C02400020024000222DE9F04713463D
:10132800D1F800E001274FF0030C04E00133102B43
:1013380002F1020229D007FA03F434EA0E05F5D1C6
:10134800D0F800800E790CFA02F5ED4308EA05089A
:10135800C0F80080D0F8009006FA02FA013E4AEA86
:101368000909012E0CFA02F8C0F800900FD9C568D7
:10137800CC7925EA0805C560C568944001332C433B
:10138800102BC46002F10202D5D1BDE8F08786684F
:1013980091F805903540856086688D7909FA02F9DB
:1013A80049EA06068660466826EA040444604668F8
:1013B80005FA03F4A4B234434460D8E700234FF697
:1013C800FF720260037143718371C371704700BF7C
:1013D80082B04FF480330193019B0B430193019B2F
:1013E800C361C161019BC361C3690193C36901936F
:1013F80002B070470369194214BF012000207047EA
:10140800006980B2704700BF4369194214BF0120C8
:1014180000207047406980B2704700BF0183704761
:10142800418370470AB9418370470183704700BF01
:10143800416170474369594041617047CB0800EBEF
:10144800830001F0070110B48900046A0F238B4060
:1014580024EA03030362036A10BC8A4042EA0301D8
:101468000162704708B501214FF4804000F076FA18
:1014780000214FF48040BDE8084000F06FBA00BF7B
:10148800014B1860704700BF0038014001F0FC03B1
:1014980003F1804303F59C3301F0030110B4890084
:1014A8009C680F228A4024EA02029A609A6810BC5B
:1014B8008840104398607047014B1860704700BF20
:1014C800DC002742014B1860704700BF0004274228
:1014D800024B186AC0F30020704700BF0038014073
:1014E80008B50121402000F00FFA00214020BDE896
:1014F800084000F009BA00BF054A136818B923F07C
:1015080004031360704743F004031360704700BF7F
:1015180000080650014B9868704700BF0008065045
:10152800054A136818B923F008031360704743F09D
:1015380008031360704700BF00080650024B6FEAAB
:1015480000105860704700BF00080650034B5B68E6
:10155800184214BF01200020704700BF0008065041
:10156800FFF7F4BFC043024BC0B25860704700BFDA
:1015780000080650014B01229A6070470030024073
:10158800014B1860186870470030024039B1054AAD
:1015980000EB810150F8043B13608842FAD1014BFB
:1015A8001868704700300240014B1868704700BF48
:1015B80000300240014B1871704700BF00300240F4
:1015C800014B1879704700BF003002400A4B0B48A6
:1015D8001A68002142F001021A6099601A6822F024
:1015E800847222F480321A6058601A6822F48022C9
:1015F8001A60D960704700BF0038024010300024DC
:10160800024B00221A701870704700BF023802405F
:1016180082B000230A4A019302E0B3F5A06F08D014
:10162800136813F4003F019B03F101030193019B2D
:10163800F3D0034B1868C0F3404002B0704700BFB6
:1016480000380240034A136823F0F80343EAC00055
:101658001060704700380240014B1860704700BFA7
:1016680000004742064B002201281A701A7005D064
:10167800042802D105221A70704770471870704705
:1016880070380240014B1860704700BF800E474217
:1016980030B4029C064D40EA046001435B08013BFC
:1016A80041EA821242EA0340686030BC704700BFDA
:1016B80000380240014B1860704700BF6000474285
:1016C8000907034B41EA8010C3F88400704700BF44
:1016D80000380240014B1860704700BF680047425D
:1016E800014B1860704700BF4C004742034A93689B
:1016F80023F0EC63194308439060704700380240B8
:10170800034A936823F0784319430843906070476D
:1017180000380240034A936823F00303184390609B
:10172800704700BF00380240024B986800F00C0078
:10173800704700BF00380240034A936823F0F00363
:1017480018439060704700BF00380240034A93680E
:1017580023F4E05318439060704700BF00380240FC
:10176800034A936823F4604343EAC00090607047DB
:101778000038024010B4214CA36803F00C03042B7A
:101788001AD0082B1BD01E4B03601C4A1D499468B5
:10179800C4F303140C5DE34043609468C4F38224EB
:1017A8000C5D23FA04F48460926810BCC2F34232E0
:1017B8008A5CD340C3607047134B0360E5E76368F6
:1017C800616813F4800F636818BF0F4C01F03F0283
:1017D8000CBF0B49B4FBF2F1C3F3881308BFB1FB8C
:1017E800F2F101FB03F2054B5B68C3F301430133DC
:1017F8005B00B2FBF3F30360C7E700BF00380240A9
:101808000024F4001C00002000127A0000F4407349
:10181800B3F5407F09D108498B6820F0704223F462
:10182800F81322F4407213438B60034A136FC0F31A
:101838000B0018431067704700380240014B1860CE
:10184800704700BF3C0E4742014B1860704700BF0D
:10185800400E4742014B1860704700BF5C01474289
:1018680029B9054A136B23EA000010637047024B3D
:101878001A6B1043186370470038024029B9054AAB
:10188800536B23EA000050637047024B5A6B1043B6
:10189800586370470038024029B9054A936B23EA18
:1018A800000090637047024B9A6B1043986370472F
:1018B8000038024029B9054A136C23EA0000106475
:1018C8007047024B1A6C1043186470470038024086
:1018D80029B9054A536C23EA000050647047024B4B
:1018E8005A6C1043586470470038024029B9054AB9
:1018F800136923EA000010617047024B1A6910430C
:10190800186170470038024029B9054A536923EA2B
:10191800000050617047024B5A6910435861704784
:101928000038024029B9054A936923EA000090610A
:101938007047024B9A69104398617047003802401B
:1019480029B9054A136A23EA000010627047024B5E
:101958001A6A1043186270470038024029B9054ACC
:10196800536A23EA000050627047024B5A6A1043D8
:10197800586270470038024029B9054A136D23EAB6
:10198800000010657047024B1A6D104318657047C8
:101998000038024029B9054A536D23EA0000506512
:1019A8007047024B5A6D1043586570470038024023
:1019B80029B9054A936D23EA000090657047024BE8
:1019C8009A6D1043986570470038024029B9054A56
:1019D800136E23EA000010667047024B1A6E10431C
:1019E800186670470038024029B9054A536E23EA41
:1019F800000050667047024B5A6E10435866704795
:101A08000038024029B9054A137823EA000010700B
:101A18007047024B1A781043187070470D3802400F
:101A28004309012B0BD0022B094B0CBF1B6F5B6FBB
:101A380000F01F0023FA00F000F001007047044B8B
:101A48001B6800F01F0023FA00F000F00100704747
:101A580000380240024A536F43F08073536770475F
:101A680000380240034BDB68184214BF01200020F5
:101A7800704700BF00380240014B1870704700BF24
:101A88000E380240044B054900221A605A609A60D9
:101A9800DA605961704700BF003C0140FFFF7F00DA
:101AA800837933B31C4B02794179F0B407681E6817
:101AB800FC4326401E605D6802F18042254002F525
:101AC8009E325D6014683C43146004689868E5437E
:101AD80028409860DA68102902EA0502DA6013D013
:101AE80001F1804303F59E331A6814431C60F0BC6F
:101AF80070470379016803F1804303F59E331A6840
:101B080022EA01021A6070479A6822439A60DA68EA
:101B18001443DC60F0BC7047003C014000230C22F9
:101B28004271036003718371704700BF024A1369F1
:101B380018431061704700BF003C0140034B5B69CC
:101B4800034214BF01200020704700BF003C014041
:101B5800014B5861704700BF003C0140054B1A68B3
:101B68005B69034004D0024214BF01200020704783
:101B780018467047003C0140014B5861704700BF50
:101B8800003C0140014B1868000C7047002004E03D
:101B9800024B1868C0F30B00704700BF002004E038
:101BA80029B9054A536823EA000050607047024B80
:101BB8005A68104358607047002004E029B9054A64
:101BC800936823EA000090607047024B9A681043BC
:101BD80098607047002004E029B9054AD36823EAD1
:101BE8000000D0607047024BDA681043D860704735
:101BF800002004E008B501214FF08050FFF7A0FE57
:101C080000214FF08050BDE80840FFF799BE00BFA3
:101C1800014B1860704700BF20000E42034A13684A
:101C280023F0E00318431060704700BF00700040C5
:101C3800014B1860704700BF10000E42014B18603E
:101C4800704700BFA0000E42014B1860704700BFEC
:101C5800A4000E42054A136818B143F48043136088
:101C6800704723F480431360704700BF0070004042
:101C7800014B1860704700BF24000E4210B40B4C93
:101C88000B4A236823F003031843206013690129D2
:101C980043F00403136107D020BF054A10BC136941
:101CA80023F004031361704730BFF6E7007000406B
:101CB80000ED00E0074B08491A6842F004021A6078
:101CC8001A6842F002021A600B6943F004030B61C0
:101CD80030BF70470070004000ED00E0034B5B68C8
:101CE800034214BF01200020704700BF007000406D
:101CF800024A136843EA8000106070470070004091
:101D08004FF0204360B143F2D20243F82020800014
:101D180000F120406FF070434360C0F80431704711
:101D280043F2DB021A60F2E7F0B443688768C568DB
:101D3800046900F1140146C93B432B4323430B4379
:101D48001343056A426A816A046833432B43134389
:101D5800C66A026B0B43A400334304F120441343C7
:101D6800082F23601CD0456B2968AB696F68AA6887
:101D78000B4343EA0711EB682F696D6941EA0222B8
:101D880042EA034242EA075343EA0563B6F5804F45
:101D980063600AD06FF07043C4F80431F0BC704738
:101DA800236843F040032360DDE7806B06688169A0
:101DB8004268836805694069314341EA021242EA90
:101DC800032242EA055343EA0063C4F80431F0BC35
:101DD800704700BFF0B4816B446B022343600F224D
:101DE8000023FF254FF480574FF400564762866260
:101DF80003608360C360036143618361C3610362FD
:101E0800C3620363A36122606260E260226162616F
:101E1800A5600A604A608D60CA600A614A618B6188
:101E2800F0BC7047800000F1204021B90268044BE3
:101E3800134003607047036843F001030360704771
:101E4800FEFF0F0010280CBF054B064B4FF0FC326D
:101E580018204021186059609A60DA60704700BF06
:101E6800600000A0800000A02DE9F041066AC36967
:101E780045688168B2689C680769D0F800E0D3F8C3
:101E88000C80D0F818C082B029430192C2685D68FE
:101E980041F0080111432404019A394344EA052713
:101EA80074681D684369120442EA04223468F668BB
:101EB800BEF1100F41EA432147EA05000CBF074B6A
:101EC800074B224341EA4C3140EA086042EA066285
:101ED80019609860DA6002B0BDE8F081600000A087
:101EE800800000A010B4016AC469102303600022B6
:101EF800FC2342608260C2600261426182612360A9
:101F08006360A360E3600B604B608B60CB6010BCC8
:101F1800704700BF41B110280CBF084A084A13682F
:101F280043F004031360704710280CBF034A044AA7
:101F3800044B11680B401360704700BF600000A09D
:101F4800800000A0FBFF0F0041B110280CBF084A19
:101F5800084A136843F040031360704710280CBF09
:101F6800034A044A044B11680B401360704700BFD2
:101F7800600000A0800000A0BFFF0F0010280CBF69
:101F8800014B024B58697047600000A0800000A018
:101F9800054B4FF0FC3218200021186059609A60F8
:101FA800DA601A61704700BFA00000A090E80C003A
:101FB800816842F0100270B442EA4323144CC668A8
:101FC8000569406943EA4133236096E80C00B1682B
:101FD800F668090441EA0323134343EA0663A3604E
:101FE80095E80C00A968ED68090441EA0323134346
:101FF80043EA0563E36090E80C008168C06809045F
:1020080041EA0323134343EA0063236170BC70472A
:10201800A00000A030B40169C4684269FC2300250F
:1020280005604560856023606360A360E3600B60C2
:102038004B608B60CB6030BC136053609360D3609F
:10204800704700BF054A20B91168054B0B40136063
:102058007047136843F0040313607047A00000A0A2
:10206800FBFF0F0052B110281AD0B0F5807F0CBFCB
:102078000E4A0F4A5368194351607047102809D017
:10208800B0F5807F0CBF094A094A536823EA010169
:1020980051607047074A536823EA0101516070474D
:1020A800044A536819435160704700BF800000A07C
:1020B800A00000A0600000A010280AD0B0F5807F22
:1020C8000CBF054B054B5B680B4214BF0120002079
:1020D8007047034B5B68F7E7800000A0A00000A0F2
:1020E800600000A0102809D0B0F5807F0CBF064A18
:1020F800064A536823EA010151607047044A53684D
:1021080023EA010151607047800000A0A00000A0F0
:10211800600000A010280ED0B0F5807F0CBF074BE0
:10212800074B5B6813EA010004D013EAD10314BF1C
:10213800012000207047034B5B68F3E7800000A094
:10214800A00000A0600000A0102809D0B0F5807F92
:102158000CBF064A064A536823EAD101516070470A
:10216800044A536823EAD10151607047800000A0F7
:10217800A00000A0600000A0F0B501F003038DB03E
:102188000024DB00ADF806400D46074602941646CB
:10219800ADF8063001F03EFC8022202303A8049409
:1021A8000392059301F042FCBDF8060080B201F0ED
:1021B8006DFC3C4635B154F8040B01F073FCE31B8D
:1021C800AB42F8D301F08AFC00E068B1082001F0C6
:1021D800DBFC029B01330293029BB3F5803FF4D1F1
:1021E80010B100200DB0F0BD07A801F069FC079BF5
:1021F8001BBA3360089B1BBA7360099B1BBAB36098
:102208000A9B1BBA0120F3600DB0F0BD2DE9F04127
:102218000D468CB003F003011F4605F003030024AC
:10222800C900DB00ADF804409046ADF8064006460C
:102238000294ADF80410ADF8063001F0EBFB402233
:1022480080212023954203910492059325D94FF4C8
:10225800803303A8069301F0E9FBBDF8060080B2BD
:1022680001F014FC344654F8040B01F01BFCA31BCA
:102278009D42F8D801F032FC00E0D0B1082001F00E
:1022880083FC029B01330293029BB3F5803FF4D198
:1022980078B100200CB0BDE8F08103A8069401F0E5
:1022A800C5FBBDF8060080B201F0F0FB002DD9D1C6
:1022B800E0E7BDF8040080B201F0E8FB44463FB116
:1022C80054F8040B01F0EEFBC8EB04039F42F7D867
:1022D80001F004FC0023029300E058B1082001F04B
:1022E80053FC029B01330293029BB3F5803FF4D168
:1022F8000028CED1BDF8060080B201F0C7FB3446F5
:1023080035B154F8040B01F0CDFBA31B9D42F8D85E
:1023180001F0E4FB0023029300E058B1082001F02B
:1023280033FC029B01330293029BB3F5803FF4D147
:102338000028AED107A801F0C3FB079B1BBA129A6D
:102348001360089B1BBA5360099B1BBA93600A9BD6
:102358001BBA0120D3609DE702683549002310B4F9
:1023680022F00102212488420260036043608360F6
:10237800C3600361446149D02E4B984234D02E4B40
:10238800984237D02D4B98423AD02D4B984242D0A4
:102398002C4B984243D02C4B98421CD02B4B984244
:1023A8001DD02B4B98423ED02A4B98421CD02A4B2A
:1023B80098421FD0294B984222D0294B98422AD0C4
:1023C800284B98422BD0284B984204D0274B984250
:1023D80005D010BC7047264A43F8942CF9E74FF013
:1023E8003D5243F8AC2CF4E74FF4746243F8202CC8
:1023F80010BC70474FF4741243F8382C10BC704767
:102408004FF0746243F8502C10BC7047194B10BC45
:102418003D229A607047184A43F8642CD9E7174A56
:1024280043F87C2CD5E73D2243F8082CD1E700BFC0
:10243800106002402860024040600240586002403C
:102448007060024088600240A0600240B8600240AC
:10245800106402402864024040640240586402400C
:102468007064024088640240A0640240B86402407C
:1024780000003D20006002403D000020400F002089
:1024880001F11802F0B48CCACD680E684C692E436D
:10249800264316431E434A6A8B6A4D6B8C6B3E4338
:1024A80016431E430B4A0368CF6A35432C431A4030
:1024B800224302600B6B42690D694C6889683B4393
:1024C80022F007021343436145608460C160F0BC99
:1024D800704700BF3F801CF00023036043608360A7
:1024E800C360036143618361C361036243628362C2
:1024F800C362036343638363704700BF036819B90A
:1025080023F001030360704743F001030360704741
:10251800036819B923F400430360704743F4004388
:1025280003607047036819B923F0200303607047FC
:1025380043F020030360704741607047406880B2F1
:10254800704700BF036822B923F4002303600161C8
:10255800704743F40023036001617047036819B9A9
:1025680023F480230360704743F48023036070479B
:102578000AB9C16070470161704700BF0068C0F3C5
:10258800C0407047006800F001007047406900F0E3
:10259800380070470A4B0B4A10B40B4CA04294BF4A
:1025A800184610468B004CBF4368036810BC21F0E6
:1025B800F02121F08211194214BF01200020704738
:1025C80000600240006402400F6402400B060CD514
:1025D8004369AAB143F08003802943610FD003689F
:1025E80001F01E01194301607047802907D0002AB5
:1025F800F5D1036801F01E0123EA0101016070476B
:1026080023F0800380294361F3D1704770B4104AE6
:10261800104E114C21F0F02323F0C315B04298BF9F
:1026280014468DB1006800F01E0000EAD12289002E
:102638004CBF6068206823F08213184002D0101C39
:1026480018BF012070BC7047406900F08002EEE7B7
:10265800006002400F6402400064024010B4094B5D
:10266800094C0A4AA04294BF1846104611F0005F70
:1026780021F0F02121F0821114BFC160816010BCEB
:10268800704700BF006002400F64024000640240CF
:10269800FFF7E4BF08B52B4B984219D02A4B984254
:1026A80020D02A4B984229D0294B984232D0294B26
:1026B80098423BD0284B984200D008BD01212020E9
:1026C800FFF74CF900212020BDE80840FFF746B984
:1026D80001211020FFF742F900211020BDE8084031
:1026E800FFF73CB901214FF40030FFF729F9002129
:1026F8004FF40030BDE80840FFF722B901214FF43C
:102708008020FFF71DF900214FF48020BDE8084024
:10271800FFF716B901214FF40020FFF711F9002146
:102728004FF40020BDE80840FFF70AB901214FF433
:102738008010FFF705F900214FF48010BDE808402C
:10274800FFF7FEB800100140004400400048004078
:10275800004C00400050004000140140028A0B89E0
:10276800F0B592B2CF888E88044622F440523A439C
:1027780048890D4689892282A289334392B203434C
:1027880022F4B05222F00C029BB21343A381A38A15
:102798009BB223F440730B4385B0A3826846FEF7CF
:1027A800E9FF1D4B9C4228D003F580639C4224D04E
:1027B800029AA389A18913F4004F2B6802EB8202C5
:1027C80014BF5B009B0002EB8202B2FBF3F0134ADA
:1027D800A2FB00356D096423090405FB13034FEAC6
:1027E80005150CD41B013233A2FB0323C3F3431397
:1027F8002B439BB2238105B0F0BD039AD9E7D900DA
:102808003231A2FB0131C1F3421242EA05039BB205
:10281800238105B0F0BD00BF001001401F85EB51BA
:1028280000234FF416510C22016042818380C3803B
:1028380003818381704700BF30B44A880D888C8833
:10284800038AC9882A4322430A439BB292B223F4DB
:1028580070631343038230BC704700BF00230380BA
:1028680043808380C3807047838929B923F4005348
:102878001B041B0C838170479BB243F40053838174
:10288800704700BF038B03F47F430383038B9BB222
:1028980019430183704700BF838919B9C3F30E0335
:1028A800838170476FEA43436FEA53439BB2838146
:1028B800704700BF838A29B923F400631B041B0CEB
:1028C800838270479BB243F400638382704700BFE2
:1028D800C1F30801818070478088C0F30800704701
:1028E800038A23F00F031B041B0C0382038A9BB289
:1028F80019430182704700BF838929B923F0020375
:102908001B041B0C838170479BB243F00203838135
:10291800704700BF838923F400631B041B0C838169
:1029280083899BB219438181704700BF038A23F0D2
:1029380020031B041B0C0382038A9BB219430182E8
:10294800704700BF038A29B923F480431B041B0C7A
:10295800038270479BB243F480430382704700BFF1
:1029680083899BB243F0010383817047838A29B925
:1029780023F008031B041B0C838270479BB243F0AF
:1029880008038382704700BF038BDBB20383038B8A
:102998009BB243EA01210183704700BF838A29B9AA
:1029A80023F020031B041B0C838270479BB243F067
:1029B80020038382704700BF838A29B923F010035C
:1029C8001B041B0C838270479BB243F01003838265
:1029D800704700BF838A23F004031B041B0C838207
:1029E800838A9BB219438182704700BF838A29B9C1
:1029F80023F002031B041B0C838270479BB243F035
:102A080002038382704700BF838A9BB21AB923EA04
:102A180001018182704719438182704710B401F027
:102A28001F04C1F342110123012903FA04F30FD053
:102A380002290CBF103014302AB9026810BC22EAEF
:102A4800030303607047026810BC134303607047B8
:102A58000C30F1E70388194214BF012000207047A9
:102A6800C94389B201807047C1F3421210B40123EF
:102A780001F01F04012A03FA04F315D0022A0CBF3F
:102A8800028A828A92B21340028892B24BB1012321
:102A9800090A03FA01F10A4214BF1846002010BCC3
:102AA8007047184610BC7047828992B21340EBE712
:102AB800090A012303FA01F1C94389B20180704769
:102AC80008B501214FF00050FEF73AFF00214FF002
:102AD8000050BDE80840FEF733BF00BFF0B40F68F0
:102AE8004E68094D8C68CA682B6847EA06010C4392
:102AF80040F6FE712243814023EA010302FA00F006
:102B080003432B60F0BC704700740040002303604F
:102B180043608360C360704741B9084901220B686C
:102B280002FA00F023EA0000086070470349012216
:102B38000B6802FA00F01843086070470074004000
:102B480049B9094900094B68012202FA00F023EA51
:102B5800000048607047044900094B68012202FAE6
:102B680000F018434860704700740040054A5368F5
:102B780018B923F003035360704743F0030353600D
:102B8800704700BF0074004082B00022054B0192DC
:102B98000193019B083318440190019B196002B00E
:102BA800704700BF0074004082B00022054B0192BC
:102BB8000193019B143318440190019B196002B0E2
:102BC800704700BF007400400828044B0CBF42EA5D
:102BD800012242EA0142C250704700BF20740040FF
:102BE80082B00022064B01920193019B2C3303EB28
:102BF80090000190019B186880B202B0704700BF36
:102C08000074004049B909494FF480520B6802FA30
:102C180000F023EA00000860704704494FF480522E
:102C28000B6802FA00F0184308607047007400400F
:102C380032B9064A1368814023EA010111607047DE
:102C4800024A1368814019431160704700740040BC
:102C5800FFF7EEBF034B5B6B8140194214BF0120A5
:102C68000020704700740040014B81405963704751
:102C780000740040054B1A685B6B814011EA030041
:102C880003D00A4214BF012000207047007400409E
:102C9800014B81405963704700740040F0B501F062
:102CA80003038DB00024DB00ADF806400D4607464F
:102CB80016460294ADF8063000F0ACFE202303A8B7
:102CC80003940494059300F0B1FEBDF8060080B2A9
:102CD80000F0DCFE3C4635B154F8040B00F0E2FE8F
:102CE800E31BAB42F8D300F0F9FE00E068B108201E
:102CF80000F04AFF029B01330293029BB3F5803F29
:102D0800F4D110B100200DB0F0BD07A800F0D8FE36
:102D1800079B1BBA3360089B1BBA7360099B1BBADD
:102D2800B3600A9B1BBAF3600B9B1BBA012033618B
:102D38000DB0F0BD2DE9F0410D468CB003F0030154
:102D48001F4605F003030024DB00C900ADF804406A
:102D58009046ADF8064006460294ADF80410ADF86A
:102D6800063000F057FE4022202395420394049237
:102D7800059325D94FF4803303A8069300F056FE37
:102D8800BDF8060080B200F081FE344654F8040B0A
:102D980000F088FEA31B9D42F8D800F09FFE00E0DB
:102DA800D0B1082000F0F0FE029B01330293029B91
:102DB800B3F5803FF4D178B100200CB0BDE8F081C4
:102DC80003A8069400F032FEBDF8060080B200F0B9
:102DD8005DFE002DD9D1E0E7BDF8040080B200F017
:102DE80055FE44463FB154F8040B00F05BFEC8EBB7
:102DF80004039F42F7D800F071FE0023029300E01D
:102E080058B1082000F0C0FE029B01330293029BD8
:102E1800B3F5803FF4D10028CED1BDF8060080B2CA
:102E280000F034FE344635B154F8040B00F03AFE95
:102E3800A31B9D42F8D800F051FE0023029300E046
:102E480058B1082000F0A0FE029B01330293029BB8
:102E5800B3F5803FF4D10028AED107A800F030FECA
:102E6800079B1BBA129A1360089B1BBA5360099BF5
:102E78001BBA93600A9B1BBAD3600B9B1BBA012039
:102E880013619AE7014BC0B218707047003C0240CA
:102E9800054A136818B923F480731360704743F424
:102EA80080731360704700BF003C0240054A1368F6
:102EB80018B923F400731360704743F40073136068
:102EC800704700BF003C0240054A136818B923F454
:102ED80080631360704743F480631360704700BFDA
:102EE800003C0240024A136843F4006313607047D1
:102EF800003C0240024A136843F480531360704751
:102F0800003C0240044B1A69002A03DA0349044AC8
:102F180059605A60704700BF003C02402301674572
:102F2800AB89EFCD024A136943F000431361704740
:102F3800003C0240044B5A69D20703D50349044AAE
:102F480099609A60704700BF003C02403B2A19080C
:102F58007F6E5D4C024A536943F001035361704729
:102F6800003C0240044B1A7802F0F3021A701A78F7
:102F780010431870704700BF143C0240024B586958
:102F8800C0F34710704700BF003C0240014B18884F
:102F980080B27047163C0240024B1878AA3818BF16
:102FA80001207047153C0240024B187800F00C00D5
:102FB800704700BF143C024029B9054A136923EA47
:102FC800000010617047024B1A691043186170477E
:102FD800003C0240034BDB68034214BF0120002081
:102FE800704700BF003C0240014BD860704700BFEB
:102FF800003C02400B4BDA68D1030AD4DA68D206E7
:1030080001D505207047DA6812F0EF0F03D00620CB
:10301800704701207047DB6813F0020F14BF0720C8
:1030280008207047003C024000B583B008238DF8A3
:103038000730FFF7DFFF8DF807009DF80730012BF9
:10304800F7D09DF80700C0B203B05DF804FB00BFDD
:1030580070B5064659B301292FD002290CBF4FF489
:1030680000744FF44074FFF7DFFF082824D1144D93
:103078002B6923F440732B612969214329612B694A
:1030880023F0F8032B612B6943F002031E432E61E2
:103098002B6943F480332B61FFF7C6FF2B6923F0BC
:1030A80002032B612B6923F0F8032B6170BD0C46DA
:1030B800FFF7BAFF0828DAD070BD4FF48074F7E73D
:1030C800003C024038B50446FFF7AEFF3CB1012C86
:1030D80008D0022C0CBF4FF400744FF44074082839
:1030E80004D038BD08284FF48074FAD10B4D2B69F1
:1030F80023F440732B612B691C432C612B6943F02B
:1031080004032B612B6943F480332B61FFF78CFF99
:103118002B6923F004032B6138BD00BF003C02403B
:10312800F8B5054616461F46FFF77EFF082800D06B
:10313800F8BD0B4C236923F440732361236943F4DE
:1031480040732361236943F001032361C5E90067E4
:10315800FFF76AFF236923F001032361F8BD00BF6D
:10316800003C024070B505460E46FFF75DFF082893
:1031780000D070BD0A4C236923F44073236123698E
:1031880043F400732361236943F0010323612E6034
:10319800FFF74AFF236923F00103236170BD00BFD5
:1031A800003C024070B505460E46FFF73DFF082873
:1031B80000D070BD0A4C236923F44073236123694E
:1031C80043F480732361236943F0010323612E8054
:1031D800FFF72AFF236923F00103236170BD00BFB5
:1031E800003C024070B505460E46FFF71DFF082853
:1031F80000D070BD094C236923F44073236123690F
:103208002361236943F0010323612E70FFF70CFF4C
:10321800236923F00103236170BD00BF003C024015
:1032280038B505460C46FFF7FFFE082800D038BD24
:10323800054B18881CB9284380B2188038BD80B265
:1032480020EA0500188038BD163C024010B5044637
:10325800FFF7EAFE082804BF014B1C7010BD00BF31
:10326800153C024070B506460C461546FFF7DCFED5
:10327800082807D1044B197801F00F01314329437D
:103288002143197070BD00BF143C0240034A1378F3
:1032980043F002031370FFF7C7BE00BF143C02409F
:1032A8002DE9F0438DB0164607464FF0000904A8F3
:1032B8000D461C46CDF80490DDF8508001F0CCF99D
:1032C800C02E00F0C680B6F5807F00F0A580802E65
:1032D80000F09380A7BB02AD01F0DAF9042238238D
:1032E8002846ADF80820ADF80A30ADF80C7001F0AA
:1032F8006DF904A801F09CF9012001F0D1F902E070
:10330800002800F0BD80102001F07EFA019B0133F7
:103318000193019BB3F5803FF2D1002800F0B08003
:10332800202280232846ADF80A20ADF80C3001F0A1
:103338004DF901F0ADF9012001F0B2F900243CE0AB
:1033480004A80CAD01F074F9002325F8283D28469F
:1033580020228023ADF80A20ADF80C3001F036F9B0
:1033680001F096F9012001F09BF9B8F1000F42D065
:10337800159B002710343E4603F1100554F8100C35
:1033880001F09CF954F80C0C01F098F954F8080C69
:1033980001F094F954F8040C01F090F9019600E05A
:1033A80090B1102001F030FA019B01330193019B89
:1033B800B3F5803FF4D138B10024002001F070F952
:1033C80020460DB0BDE8F08301F07EF945F8100CF9
:1033D80001F07AF945F80C0C01F076F945F8080C7B
:1033E80001F072F91037B84545F8040C04F11004DF
:1033F80005F11005C2D80124DFE7ADF80E902B685F
:103408001BBA08936B681BBA0993AB681BBA0A937B
:10341800EB681BBA0B935DE74FF40073ADF80E3001
:103428002B681BBA04936B681BBA0593AB681BBA6D
:103438000693EB681BBA07932B691BBA08936B6951
:103448001BBA0993AB691BBA0A93EB691BBA0B93B6
:1034580040E74FF48073ADF80E302B681BBA069323
:103468006B681BBA0793AB681BBA0893EB681BBA67
:1034780009932B691BBA0A936B691BBA0B9329E74B
:103488000423ADF8083062E72DE9F04391B01F46F8
:1034980006464FF0000908A80D461446CDF80490DA
:1034A800DDF8648001F0D8F8C02F00F0DA80B7F5B5
:1034B800807F00F0B980802F00F0A7802B681BBAAE
:1034C80004936B681BBA0593AB681BBA0693EB6849
:1034D8001BBA0793BEBB02AC01F0DAF8042238230A
:1034E8002046ADF80820ADF80A30ADF80C6001F0C0
:1034F8006DF808A801F09CF8012001F0D1F802E06D
:10350800002800F0C580102001F07EF9019B0133EE
:103518000193019BB3F5803FF2D1002800F0B880F9
:10352800282280232046ADF80A20ADF80C3001F09F
:103538004DF804A801F09AF801F0AAF8012001F06A
:10354800AFF8002441E008A810AC01F071F800239E
:1035580024F8383D282280232046ADF80A20ADF80B
:103568000C3001F033F804A801F080F801F090F86D
:10357800012001F095F8B8F1000F44D0189B03F131
:1035880010041A9B00273E4603F1100554F8100C4E
:1035980001F094F854F80C0C01F090F854F8080C69
:1035A80001F08CF854F8040C01F088F8019600E05A
:1035B80090B1102001F028F9019B01330193019B80
:1035C800B3F5803FF4D138B10024002001F068F849
:1035D800204611B0BDE8F08301F076F845F8100CEC
:1035E80001F072F845F80C0C01F06EF845F8080C7B
:1035F80001F06AF81037B84545F8040C04F11004D6
:1036080005F11005C2D80124DFE7ADF80E90236854
:103618001BBA0C9363681BBA0D93A3681BBA0E936D
:10362800E3681BBA0F9349E74FF40073ADF80E3007
:1036380023681BBA089363681BBA0993A3681BBA6B
:103648000A93E3681BBA0B9323691BBA0C9363694B
:103658001BBA0D93A3691BBA0E93E3691BBA0F93A8
:103668002CE74FF48073ADF80E3023681BBA0A9329
:1036780063681BBA0B93A3681BBA0C93E3681BBA65
:103688000D9323691BBA0E9363691BBA0F9315E751
:103698000423ADF808305DE72DE9F04591B09A466E
:1036A8000446002508A80F4616460195DDF86480F3
:1036B80000F0D2FFBAF1C00F00F0A680BAF5807F03
:1036C80000F08580BAF1800F72D03B681BBA049372
:1036D8007B681BBA0593BB681BBA0693FB681BBAC9
:1036E80008A8079300F0A4FF002C5DD10423ADF8CF
:1036F80008303022802302A8ADF80A20ADF80C303B
:1037080000F064FF04A800F0B1FF00F0C1FF012041
:1037180000F0C6FFB8F1000F44D0189B03F1100465
:103728001A9B002703F110053E4654F8100C00F0D0
:10373800C5FF54F80C0C00F0C1FF54F8080C00F059
:10374800BDFF54F8040C00F0B9FF019600E090B1F9
:10375800102001F059F8019B01330193019BB3F547
:10376800803FF4D138B10024002000F099FF2046B2
:1037780011B0BDE8F08500F0A7FF45F8100C00F087
:10378800A3FF45F80C0C00F09FFF45F8080C00F06B
:103798009BFF1037B84545F8040C04F1100405F1F7
:1037A8001005C2D80124DFE70023ADF80830A0E7F0
:1037B800ADF80E5033681BBA0C9373681BBA0D939F
:1037C800B3681BBA0E93F3681BBA0F937DE74FF4E7
:1037D8000073ADF80E3033681BBA089373681BBAD0
:1037E8000993B3681BBA0A93F3681BBA0B9333693E
:1037F8001BBA0C9373691BBA0D93B3691BBA0E936A
:10380800F3691BBA0F9360E74FF48073ADF80E307D
:1038180033681BBA0A9373681BBA0B93B3681BBA55
:103828000C93F3681BBA0D9333691BBA0E93736933
:103838001BBA0F9349E700BF2DE9F0438DB08146CD
:10384800002604A80F46984614460196149D00F0D9
:1038580003FFB9F1010F16BF0423ADF80860ADF8F6
:1038680008300026802302A8ADF80C30ADF80A60B5
:1038780000F0ACFE3B681BBA06937B681BBA079343
:10388800BB681BBA0893FB681BBA09933B691BBA50
:103898000A937B691BBA04A80B9300F0C9FE00F0D9
:1038A800F7FE012000F0FCFEB8F1000F2FD008341D
:1038B8000835374654F8080C00F000FF54F8040C9B
:1038C80000F0FCFE019700E090B1102000F09CFF92
:1038D800019B01330193019BB3F5803FF4D138B1CB
:1038E8000024002000F0DCFE20460DB0BDE8F08387
:1038F80000F0EAFE45F8080C00F0E6FE0836B04590
:1039080045F8040C04F1080405F10805D2D801248F
:10391800E7E700BF2DE9F04591B08246002508A8E9
:103928000E461C4617460195DDF8608000F094FEAF
:10393800BAF1010F18BF04234FF0080218BFADF801
:1039480008300DEB02004FF0800308BFADF80850B7
:10395800ADF80C30ADF80A2000F038FE33681BBA19
:103968000A9373681BBA0B93B3681BBA0C93F3687A
:103978001BBA0D9333691BBA0E9373691BBA08A857
:103988000F9300F055FE3B681BBA04937B681BBA83
:1039980004A8059300F06AFE00F07AFE012000F00A
:1039A8007FFEB8F1000F32D0199B0027083403F1CD
:1039B80008053E4654F8080C00F080FE54F8040C44
:1039C80000F07CFE019600E090B1102000F01CFF92
:1039D800019B01330193019BB3F5803FF4D138B1CA
:1039E8000024002000F05CFE204611B0BDE8F08500
:1039F80000F06AFE45F8080C00F066FE0837B84586
:103A080045F8040C04F1080405F10805D2D801248E
:103A1800E7E700BF08B501212020FDF775FF002169
:103A28002020BDE80840FDF76FBF00BF0F4B1A68A4
:103A380022F0F00230B41A601D6801688268446898
:103A480029430A432243402C1A6007D11A6822F4FA
:103A580080321A60C26819680A431A60034A1368F8
:103A680043F00403136030BC704700BF00040650E5
:103A78000023036043608360C3607047024A136891
:103A880043F004031360704700040650044B9A681F
:103A980022F01F029A609A6810439860704700BF2E
:103AA80000040650014B5860704700BF00040650E0
:103AB800024B1868C0F30320704700BF000406508B
:103AC800054BDA6802601A6942605A6982609A692D
:103AD800C260DB690361704700040650024A9368BC
:103AE80043F48073936070470004065009490B6AD9
:103AF80003608B6843600B6840F8083F002303F1BC
:103B08003E02013351F8222040F8042F332BF6D11E
:103B1800704700BF000406500C4B026810B41A62CC
:103B280042689A6050F8082F1A601A6842F0040236
:103B38001C461A60002303F13E02013350F8041FAB
:103B480044F82210332BF6D110BC704700040650FD
:103B5800054A136818B923F008031360704743F047
:103B680008031360704700BF00040650054A136A33
:103B780029B923EA000000F0FF00106270471843DB
:103B88001062704700040650044BC2044CBF1B6807
:103B98005B6A184214BF01200020704700040650D9
:103BA800014BC0435862704700040650044A516AEA
:103BB800136A0B40034214BF01200020704700BF66
:103BC80000040650C043024BC0B25862704700BFA1
:103BD80000040650014B1860704700BF00300040D9
:103BE800014B5860704700BF00300040014B98609F
:103BF800704700BF00300040024B4AF6AA221A6004
:103C0800704700BF00300040024B4CF6CC421A60AF
:103C1800704700BF00300040034BDB68184214BFF8
:103C280001200020704700BF00300040054B0022F3
:103C38001F211A60DA6059619A61DA611A625A6260
:103C4800704700BF00000550F0B40F4C078821688A
:103C580042888688C58803893A4321F480413243E3
:103C680021F001012A43458921601A43818923688B
:103C78002A430A4323F47F6392B223F002031343D7
:103C88002360F0BC704700BF00000550002303808C
:103C980043808380C380038143818381704700BF51
:103CA80030B4428805888488C388044942EA0542BA
:103CB80043EA04430A6230BC4B6270470000055077
:103CC800054A136818B923F004031360704743F0DA
:103CD80004031360704700BF00000550014B0268E1
:103CE8009A61704700000550054A136818B923F017
:103CF80008031360704743F008031360704700BF60
:103D080000000550054A136818B923F4804313606E
:103D1800704743F480431360704700BF00000550AC
:103D2800054A136818B923F001031360704743F07C
:103D380001031360704700BF00000550014B986AEB
:103D4800704700BF00000550054A29B9D368C04331
:103D580080B21840D0607047D3681843D06070476D
:103D680000000550030B012B09D0022B054B0CBF9B
:103D78005B681B69184214BF012000207047014B83
:103D88009B68F7E700000550014B5861704700BF7A
:103D980000000550034B1B69184214BF0120002086
:103DA800704700BF00000550014B5861704700BFC5
:103DB8000000055008B50D4B98424FF001010AD09C
:103DC8004FF08060FDF7BCFD00214FF08060BDE83A
:103DD8000840FDF7B5BD4FF00070FDF7B1FD0021BB
:103DE8004FF00070BDE80840FDF7AABD0064004030
:103DF800036823F002030360036843F001030360D0
:103E08004368DB0707D44FF6FF7301E0013B02D09C
:103E18004268D207FAD5436813F001035BD08B7967
:103E2800012B03680CBF43F0800323F0800330B4F8
:103E38000360CB79012B03680CBF43F0400323F0E8
:103E4800400303600B7A012B03680CBF43F0200387
:103E580023F0200303604B7A012B03680CBF43F067
:103E6800100323F0100303608B7A012B03680CBF47
:103E780043F0080323F008030360CB7A012B03689F
:103E88000CBF43F0040323F004030360CA788D7861
:103E98000B794C790988120642EA857242EA034393
:103EA80043EA04534A1E1343C361036823F0010322
:103EB80003604368D90707D54FF6FF7301E0013B5C
:103EC80002D04268D207FAD4406800F0010080F0BE
:103ED800010030BC70471846704700BF3A4B827AE1
:103EE800D3F8001241F00101F0B4C3F80012012127
:103EF80001FA02F2D3F81C12D4432140C3F81C1271
:103F0800017BB1B9D3F80C52C78846882F492540A0
:103F1800C3F80C52857A483546EA074643F83560B7
:103F2800857A86880388ED00294443EA06434B6076
:103F3800017B012930D0C37A23493BBBD1F8043235
:103F48002340C1F804320389BBB91F49D1F81432A0
:103F58001C40C1F81442437B012B05D11A49D1F802
:103F68001C321A43C1F81C22174AD2F8003223F037
:103F78000103C2F80032F0BC7047012BEBD11249A3
:103F8800D1F814321343C1F81432E4E7D1F80432FB
:103F98001343C1F80432D6E70B490788D1F80C520D
:103FA80046880A4B1543C1F80C52857A483546EACB
:103FB800074641F83560857A8688C188ED002B442C
:103FC80041EA06415960B6E7006400404066004097
:103FD800002310B4022103240122047141710280DC
:103FE8008371C371037243728372C3728370C37027
:103FF80010BC70470D4BD3F8002242F00102C3F801
:104008000022D3F8002222F47C5222F00E02C3F8D8
:104018000022D3F8002242EA0020C3F80002D3F8B5
:10402800002222F00102C3F8002270470064004019
:10403800036819B923F480330360704743F480336D
:10404800036070470368A9B923F080030360D0F8C0
:10405800843123F48073C0F88431D0F8943123F488
:104068008073C0F89431D0F8A43123F48073C0F879
:10407800A431704743F080030360D0F8843143F4DF
:104088008073C0F88431D0F8943143F48073C0F859
:104098009431D0F8A43143F48073C0F8A431704748
:1040A8008368F0B40446580105D4A3681A0143D5BF
:1040B8000122104601E0002210461201A318D3F88D
:1040C800805105F00105C3F880510D7A55B34E684B
:1040D800D3F8807145EAC6054E7A3D433543C3F8A7
:1040E80080518D7A05F00F058D72D3F8845125F033
:1040F8000F05C3F884518E7AD3F884513543C3F839
:1041080084512244D1F80B40C2F88841D1F80F10ED
:10411800C2F88C11D3F8802142F00102C3F8802143
:10412800F0BC70470F684D7AD3F8806145EA47556F
:104138003543C3F88051D4E7A368DB0002D50222D7
:104148001046BAE70420F0BC704700BF01291AD016
:1041580015D302290FD182680D4B13400D4A9342A3
:1041680006D007D90C4A934202D0094A934204D197
:10417800012070470BB90220704700207047826801
:10418800044B1340EAE78268034B1340E6E700BF9D
:1041980000000310030000040003000801290DD0EB
:1041A80007D3022904D1836843F40003836070476E
:1041B8007047836843F0800383607047836843F4E3
:1041C80000438360704700BF10B400EB0114D4F8BB
:1041D800B03103F00403DBB21372C3BBD4F8B031BF
:1041E8005B0D1360D4F8B03103F002035372D4F8B6
:1041F800B43103F00F039372D4F8B44100EB011308
:10420800240AD474D3F8B841D472D3F8B841240A34
:104218001473D3F8B841240C5473D3F8B841240E5E
:104228009473D3F8BC41D473D3F8BC41240A1474F2
:10423800D3F8BC41240C5474D3F8BC311B0E9374CE
:1042480051B1036910BC43F0200303617047D4F8EF
:10425800B031DB085360C5E7C36810BC43F02003E6
:10426800C360704721B1036943F0200303617047BD
:10427800C36843F02003C360704700BF31B1012910
:1042880006BF006900F0030000207047C06800F016
:1042980003007047E9B9036823F0030343F00103FF
:1042A8000360436803F00303012B09D04FF6FF7244
:1042B80001E0013A04D0436803F00303012BF8D16D
:1042C800406800F00300A0F10100B0FA80F0400956
:1042D8007047012903D0022917D0002070470368CE
:1042E80023F0030303604368990707D04FF6FF7371
:1042F80001E0013B02D042689207FAD1436813F00B
:10430800030F0CBF012000207047036823F003034C
:1043180043F002030360436803F00303022B09D050
:104328004FF6FF7201E0013A04D0436803F003033B
:10433800022BF8D1406800F00300A0F10200B0FAA7
:1043480080F04009704700BF036823F0030343F07F
:1043580002030360406800F00300A0F10200B0FA15
:1043680080F04009704700BF036823F00203036030
:104378004368990707D54FF6FF7301E0013B02D068
:1043880042689207FAD4406880F00200C0F3400007
:10439800704700BF806900F0700070478069000EA8
:1043A800704700BF8069C0F30740704743691AB976
:1043B80023EA01014161704719434161704700BF19
:1043C80011F4700F07D08369C3F313030B4214BFB2
:1043D800012000207047CB0107D54368C3F31303BE
:1043E8000B4214BF0120002070470A0107D58368DB
:1043F800C3F313030B4214BF0120002070478B0145
:104408004CBFC3680369C3F313030B4214BF0120F5
:10441800002070470A4B99420CD08A01C1F313035C
:1044280006D44A0109D40A014CBF8360436070472F
:10443800C36070470023836170470361704700BF02
:104448007000F03043690B401ED0402967D00ED968
:10445800B1F5006F5CD019D8B1F5007F50D0B1F537
:10446800806F37D0B1F5807F27D0002070470429AE
:104478004AD018D910293DD0202937D00829F4D19D
:10448800C068C0F30010704718467047B1F5803F08
:1044980024D0B1F5003F25D0B1F5004FE5D14068F3
:1044A800C0F38000704701290BD00229DDD1C06814
:1044B80010F0030018BF01207047806900F0010068
:1044C8007047806800F0013020F08070003018BF1D
:1044D800012070478069C0F3800070474068C0F3CE
:1044E800C00070474068C0F3001070470069C0F30F
:1044F800C0007047006910F0030018BF0120704722
:104508008069C0F340007047C068C0F3C0007047BE
:10451800836913F0700F14BF0120002070470069F1
:10452800C0F30010704700BFB1F5807F1ED00DD9D1
:10453800B1F5006F24D013D9B1F5803F25D0B1F57E
:10454800003F2ED0B1F5004F1AD0704708291FD070
:104558000FD9202922D0402927D110230361704781
:10456800B1F5007F02D0B1F5806F1DD104234360FF
:10457800704701290FD0042918D10823C360704758
:104588000022042382614360704708234360704718
:104598001023C3607047064B83607047082303618C
:1045A800704710234360704770477047704700BFDB
:1045B8000101010008B501211020FDF7A5F900212E
:1045C8001020BDE80840FDF79FB900BF144B1A68DA
:1045D80022F0380230B41A601C6842888588144377
:1045E8001C601C6824F0C0041C60196822F01802C2
:1045F8002943202A196007D11968C48821F4407119
:1046080019601A6822431A60054B0088196821F05E
:10461800040119601A6802431A6030BC704700BF71
:10462800000006500023038043808380C3807047C6
:10463800084B02681A6242685A6282689A62C268C3
:10464800DA6202691A6342695A6382699A63C269C3
:10465800DA637047000006500023036043608360FC
:10466800C360036143618361C3617047044B02689F
:104678001A6442685A6482689A64C268DA64704745
:10468800000006500023036043608360C3607047E6
:10469800024A136843F480431360704700000650D1
:1046A800054A136818B923F400431360704743F4AC
:1046B80000431360704700BF00000650014B98602C
:1046C800704700BF00000650014BD868704700BF14
:1046D80000000650F0B482B0264C002301932369F1
:1046E80023F001032361236813F0080F14BF112579
:1046F80015254FF6FF7601E0012A08D06268019B74
:1047080001330193019BB34202EA0502F4D1194B2C
:104718005A681540012D04D00025284602B0F0BC87
:1047280070471A6922F002021A611A6822F40042DC
:104738001A601A680E684C688F6802F47F7202600B
:104748001A6C42605A6C82609A6CC260DB6CCA68F0
:1047580003610B69026243624A698B69C9694661F0
:104768008461C7618262C3620163284602B0F0BCFB
:10477800704700BF000006500F4B02681A6042697C
:104788001A6282695A62C2699A62026ADA62426A83
:104798001A63826A5A63C26A9A63026BDA6342686E
:1047A8001A6482685A64C2689A640269DA641A6888
:1047B80042F400421A60704700000650054A136927
:1047C80029B923EA000000F0FF0010617047184380
:1047D8001061704700000650054A536929B923EA59
:1047E800000000F0FF0050617047184350617047A7
:1047F80000000650034BDB69184214BF012000205B
:10480800704700BF00000650044B82064CBF9B69EE
:104818005B68184214BF0120002070470000065052
:1048280008B501214FF48070FDF798F800214FF486
:104838008070BDE80840FDF791B800BFF0B5446846
:104848000A680E79D1F810E0CD680F4B24F0407457
:1048580024F48074224342EA0622426087688A6808
:104868004E794EEA050422433B40134343EA46038C
:1048780083600A7DC36A013AD2B223F4700343EA23
:104888000253C362F0BD00BFFDF7FFC00023012241
:1048980002750360037143718360C36003617047ED
:1048A80070B442680668064D8468C168054B68683C
:1048B800324322430A43034013436B6070BC704782
:1048C80000230140E030FCFF002303604360836065
:1048D800C3607047836819B923F001038360704788
:1048E80043F0010383607047436823F4400323F4D3
:1048F800007319434160704741628262704700BF8C
:10490800436823F01F03194341607047054A536801
:1049180018B923F400035360704743F4000353604D
:10492800704700BF00230140054A536818B923F4B3
:1049380080035360704743F480035360704700BF9F
:1049480000230140092970B41DD9A1F10A0606EB1C
:104958004606C5680724B440B34025EA0404234347
:10496800062AC3601BD90C2A27D90D3A02EB82020A
:10497800C36A1F24944001FA02F223EA04010A439D
:10498800C26270BC704701EB410605690724B44058
:10499800B34025EA04042343062A0361E3D8013A15
:1049A80002EB8202436B1F24944001FA02F223EACD
:1049B80004010A43426370BC7047073A02EB820263
:1049C800036B1F24944001FA02F223EA04010A430C
:1049D800026370BC704700BF836843F08043836004
:1049E800704700BF836819B923F4806383607047F8
:1049F80043F4806383607047836819B923F0020326
:104A08008360704743F0020383607047436801394D
:104A180023F4604343EA413141607047436819B960
:104A280023F400634360704743F4006343607047B6
:104A3800C06C80B2704700BF014B1868704700BF58
:104A480008230140836819B923F480738360704791
:104A580043F4807383607047836819B923F4007343
:104A68008360704743F4007383607047054A536856
:104A780018B923F400535360704743F4005353604C
:104A8800704700BF00230140092970B41BD801EB0F
:104A9800410605690724B440B34025EA04042343CA
:104AA8000361836B0232C3F30154121BD2B202EBCF
:104AB80082021F24944023EA040301FA02F21343FA
:104AC800836370BC7047A1F10A0606EB4606C56809
:104AD8000724B440B34025EA04042343C360E0E755
:104AE800836B013923F4401343EA01518163704712
:104AF80082B0002301930190019B19440191019B0D
:104B08001A6002B0704700BF836823F4702319430A
:104B180081607047836823F44013194381607047AC
:104B2800836843F480038360704700BF8068C0F3E4
:104B380080507047FFF7FABF436819B923F48063C0
:104B48004360704743F4806343607047436819B912
:104B580023F480534360704743F4805343607047A5
:104B680082B0002301930190019B283319440191DD
:104B7800019B186880B202B0704700BFC9B2012318
:104B88008B4041681AB921EA0303436070470B431D
:104B9800436070470368194214BF01200020704722
:104BA800C9430160704700BF4268006810EA1120DD
:104BB80007D00123C9B203FA01F1114214BF184604
:104BC800002070476FEA11210160704708B5012184
:104BD8004FF40060FCF7B4FE00214FF40060BDE81C
:104BE8000840FCF7ADBE00BF034A536823F4C07306
:104BF80018435060704700BF002C004082B0084A3C
:104C080000230193536823F07F030193019B00F075
:104C18007F0003430193019B536002B0704700BFBC
:104C2800002C0040014B01221A607047A480054205
:104C3800024B00F07F001860704700BF002C004056
:104C4800024B40F080001860704700BF002C004005
:104C5800024B9868003018BF01207047002C0040B4
:104C6800014B00229A607047002C004008B5604B49
:104C7800984235D0B0F1804F3CD05E4B984243D03B
:104C88005D4B98424AD05D4B984251D05C4B98425C
:104C980058D05C4B98425FD05B4B984266D05B4BD8
:104CA80098426DD05A4B984276D05A4B98427FD052
:104CB800594B984200F08880584B984200F08E80FB
:104CC800574B984200D008BD01214FF48070FCF783
:104CD80037FE00214FF48070BDE80840FCF730BE75
:104CE80001210846FCF73AFE00210120BDE80840F2
:104CF800FCF734BE01210846FCF722FE0021012002
:104D0800BDE80840FCF71CBE01210220FCF718FE94
:104D180000210220BDE80840FCF712BE0121042052
:104D2800FCF70EFE00210420BDE80840FCF708BE91
:104D380001210820FCF704FE00210820BDE80840F6
:104D4800FCF7FEBD01211020FCF7FAFD0021102020
:104D5800BDE80840FCF7F4BD01212020FCF7F0FD78
:104D680000212020BDE80840FCF7EABD012102200F
:104D7800FCF7F4FD00210220BDE80840FCF7EEBD79
:104D880001214FF48030FCF7E9FD00214FF4803019
:104D9800BDE80840FCF7E2BD01214FF40030FCF704
:104DA800DDFD00214FF40030BDE80840FCF7D6BD1A
:104DB80001214FF48020FCF7D1FD00214FF4802021
:104DC800BDE80840FCF7CABD01214020FCF7B8FD4A
:104DD80000214020BDE80840FCF7B2BD0121802039
:104DE800FCF7AEFD00218020BDE80840FCF7A8BD17
:104DF800000001400004004000080040000C004092
:104E08000010004000140040000401400040014030
:104E1800004401400048014000180040001C0040C8
:104E280000200040224A038890429BB212D002F52B
:104E3800806290420ED0B0F1804F0BD0A2F5803244
:104E4800904207D002F58062904203D002F580625A
:104E5800904203D14A8823F070031343154A9042C5
:104E68001ED002F5806290421AD00A8970B423F4E9
:104E780040730F4C4E680D889BB21343A0420380C9
:104E8800C662058506D00C4B984203D00123838265
:104E980070BC70478B7A03860123838270BC70478D
:104EA80003800B884A68C2620385012383827047A6
:104EB80000000140001000400004014000234FF0B2
:104EC800FF3242600380038143808372704700BFD2
:104ED80001858282704700BF038823F070031B049A
:104EE8001B0C19430180704741627047C1627047CB
:104EF800406A7047008D80B2704700BF038829B9A7
:104F080023F002031B041B0C038070479BB243F081
:104F180002030380704700BF038829B923F0040304
:104F28001B041B0C038070479BB243F004030380EF
:104F3800704700BF038829B923F080031B041B0CAA
:104F4800038070479BB243F080030380704700BF23
:104F5800038823F008031B041B0C038003889BB2FF
:104F680019430180704700BF038823F440731B0472
:104F78001B0C038003889BB219430180704700BF54
:104F8800038829B923F001031B041B0C0380704715
:104F98009BB243F001030380704700BFF0B5048C57
:104FA800B1F80CC04B880F881A4E24F00104240471
:104FB800240C0484058CB0F804E0048B25F0020569
:104FC80024F073022D042D0C4CEA030312042B4326
:104FD800120CB0429BB21FFA8EF442EA070208D0C4
:104FE8000D4DA84205D089688480028341630384FB
:104FF800F0BDCE890F8A4D8A23F00803334324F489
:1050080040748E883D4323F004032C433343A4B2F9
:10501800E9E700BF0000014000040140F0B5058C3D
:105028000C88B1F80CC0B1F802E01E4E25F010054E
:105038002D042D0C0584028C8788058B22F0200313
:105048001B0425F4E6421B0C120443EA0C13120C51
:1050580043EA0E1342EA0422B0429BB2BDB294B2B4
:1050680008D0114A904205D08A68858004838263FB
:105078000384F0BD23F08002CB890F8A8E8892B218
:1050880042EA03124FF6BF73134025F440654A8A7B
:1050980045EA870543EA061345EA82059BB2ADB2A5
:1050A800E2E700BF0000014000040140F0B5058CB4
:1050B800B1F80CC0B1F802E00C881D4F25F48075DA
:1050C8002D042D0C0584028C8688858B22F40073B0
:1050D8001B0425F073021B0C43EA0C23120443EA59
:1050E8000E23120CB8429BB2B5B244EA020408D0AF
:1050F800104A904205D08A6885808483C2630384FD
:10510800F0BD23F40062CB890F8A8E8892B242EAFE
:1051180003224FF6FF33134025F440554A8A45EAE7
:10512800071543EA062345EA02159BB2ADB2E2E74A
:105138000000014000040140028CB1F802C022F4D2
:1051480080521204120C2DE9F041B1F80C80B1F82C
:1051580000E00284058C8788828B124E25F4005467
:1051680022F4E6432404240C1B0444EA08341B0CF0
:1051780044EA0C3443EA0E23B042A4B2BAB29BB25A
:1051880009D0094DA84206D08968828083830164CA
:105198000484BDE8F0810D8A22F4804242EA851237
:1051A80092B2F1E7000001400004014000230380AF
:1051B8004380838083608381C381038243827047F5
:1051C80010B4048C0123A4B28B4024EA030321F019
:1051D80008040384183074B10439C1F34E0148F649
:1051E800FF730C5823400B5012020B5810BC92B29C
:1051F8001A430A50704749084FF68F730C582340DA
:105208000B500B5810BC1A430A5070474163704743
:1052180081637047C163704701647047038B23F053
:1052280070031B041B0C194301837047038B23F481
:10523800E0431B041B0C43EA012189B20183704738
:10524800838B23F070031B041B0C19438183704765
:10525800838B23F4E0431B041B0C43EA012189B22E
:1052680081837047038B23F008031B041B0C19432D
:1052780001837047038B23F400631B041B0C43EA70
:10528800012189B201837047838B23F008031B0433
:105298001B0C194381837047838B23F400631B0421
:1052A8001B0C43EA012189B281837047038B23F0E9
:1052B80004031B041B0C194301837047038B23F45D
:1052C80080631B041B0C43EA012189B201837047E8
:1052D800838B23F004031B041B0C19438183704741
:1052E800838B23F480631B041B0C43EA012189B2DE
:1052F80081837047038B23F080031B041B0C194325
:1053080001837047038BC3F30E0343EA012189B27B
:1053180001837047838B23F080031B041B0C194304
:1053280081837047838BC3F30E0343EA012189B25B
:1053380081837047038C23F002031B041B0C194361
:1053480001847047038C23F008031B041B0C1943CA
:1053580001847047038C23F020031B041B0C43EAD1
:10536800011189B201847047038C23F080031B0468
:105378001B0C43EA011189B201847047038C23F4A2
:1053880000731B041B0C43EA012189B20184704796
:10539800038C23F400631B041B0C43EA012189B22C
:1053A80001847047038C23F400531B041B0C43EA4D
:1053B800013189B20184704710B4048C01238B40F9
:1053C800A4B224EA03040484038C10BC8A40134367
:1053D8009BB20384704700BF10B4048C04238B4035
:1053E800A4B224EA03040484038C10BC8A40134347
:1053F8009BB20384704700BF0B88F0B5002B32D0F6
:10540800042B57D0082B00F08380028C4F88B1F80A
:1054180004E00E89CD8822F480521204120C028412
:10542800848B028C24F4407122F4005309055B0438
:10543800090D5B0C41EA0E2143EA073341EA0631C4
:105448009BB243F4805389B281830384828B22F414
:1054580040621204120C8283838B9BB243EA0523B9
:105468009BB28383F0BD028C4E888D880B89CC88D3
:1054780022F001021204120C0284028B018C92B2F7
:1054880022F0F30221F00A0142EA0313090446F06C
:1054980001029BB2090C2B43114303830184038B44
:1054A80023F00C031B041B0C0383038B9BB22343C5
:1054B8000383F0BD058C4F888E88B1F808E0CC884E
:1054C80025F010010904090C0184028B018C22F4D7
:1054D80040731B051B0D8AB243EA0E3322F0A0026B
:1054E8009BB242EA071243EA062392B29BB242F009
:1054F800100203830284038B23F440631B041B0CF8
:105508000383038B9BB243EA04239BB20383F0BD5E
:10551800068C4F888D880A89CC8826F48071090406
:10552800090C0184818B038C89B29BB221F0F301B1
:1055380023F4206341EA021243EA072392B29BB2A2
:1055480043F480732A4382830384838B23F00C0300
:105558001B041B0C8383838B9BB21C438483F0BD89
:1055680000230122828003804380C3800381704727
:10557800B1F802C00B88F0B5B1F804E0BCF1000F37
:105588000CBF02240024BEF1010F0CBF0225012527
:10559800002B4BD0038C0E89C98823F010031B0401
:1055A8001B0C0384028B078C22F440731B05BAB2D0
:1055B8001B0D43EA063322F0A0029BB242EA0C120A
:1055C80043EA0E2392B29BB242F010020383028494
:1055D800038B23F440631B041B0C0383038B9BB2D4
:1055E80043EA01239BB20383038C23F001031B04CA
:1055F8001B0C0384028B078C92B222F0F302BFB219
:1056080042EA061327F00A029BB242F001022B433A
:10561800144303830484038B23F00C031B041B0C27
:105628000383038B9BB219430183F0BD038C0F895D
:10563800CE8823F001031B041B0C0384018B038C0D
:1056480089B221F0F30123F00A0341EA07111B0490
:105658004CF0010289B21B0C13434EEA010EA0F86C
:1056680018E00384038B23F00C031B041B0C038337
:10567800038B9BB233430383038C23F010031B0477
:105688001B0C0384028B018C22F440731B051B0D39
:105698008AB243EA073322F0A0029BB242F010021A
:1056A80043EA052342EA041403830484038B23F4A6
:1056B80040631B041B0C0383038B9BB243EA06263F
:1056C800B6B20683F0BD00BF406B7047806B704771
:1056D800C06B7047006C7047038B23F00C031B04EE
:1056E8001B0C0383038B9BB219430183704700BFD4
:1056F800038B23F440631B041B0C0383038B9BB2B3
:1057080043EA012189B20183704700BF838B23F0EC
:105718000C031B041B0C8383838B9BB2194381836B
:10572800704700BF838B23F440631B041B0C8383E7
:10573800838B9BB243EA012189B28183704700BF02
:10574800F0B54B88B1F800E08F88CE880D894C8978
:105758008A894EEA03033B4333432B4323431343D2
:105768009BB2A0F84430F0BD0023038043808380BF
:10577800C380038143818381704700BFB0F8443000
:1057880021B9C3F30E03A0F8443070476FEA4343CE
:105798006FEA53439BB2A0F844307047838829B915
:1057A80023F004031B041B0C838070479BB243F057
:1057B80004038380704700BF838829B923F001035D
:1057C8001B041B0C838070479BB243F0010383804A
:1057D800704700BF81827047038A194214BF0120B5
:1057E80000207047C94389B201827047038A8289C1
:1057F80011EA030092B203D0114214BF0120002025
:10580800704700BFC94389B2018270470A43A0F8B4
:105818004820704783899BB21AB923EA0101818124
:105828007047194381817047FFF7F4BF838829B90E
:1058380023F008031B041B0C838070479BB243F0C2
:1058480008038380704700BF038923F007031B0404
:105858001B0C0381704700BF038923F070031B04EE
:105868001B0C1943018103899BB243F00703038191
:10587800704700BF602930B4048C24D024F00104A0
:105888002404240C0484048B058CA4B224F0F304AF
:10589800ADB244F0010425F00A0544EA031345F0CB
:1058A80001049BB2224303830284038923F070031B
:1058B8001B041B0C0B43038103899BB243F00703B2
:1058C800038130BC704724F010042404240C0484A1
:1058D800048B058C24F440742405ADB2240D25F006
:1058E800A00544F4807445F0100544EA033345EA02
:1058F80002129BB292B203830284D6E710B40489E1
:1059080042EA0323E4B223439BB21943018103898A
:1059180010BC23F077031B041B0C43F077030381AF
:10592800704700BF10B4048942EA0323E4B223435A
:105938009BB219430181038910BC9BB243F4804395
:1059480003817047038923F070031B041B0C194360
:1059580001817047838823F070031B041B0C83802C
:1059680083889BB219438180704700BF038923F065
:1059780007031B041B0C038103899BB21943018194
:10598800704700BF038923F080031B041B0C0381AD
:1059980003899BB219430181704700BF10B4048981
:1059A800E4B221430A4342EA032399B2018110BCBD
:1059B800704700BF70B40689048B058C24F44074CA
:1059C80024F00304ADB225F0220526F007062404CE
:1059D8002A433604240C360C44F4807442EA031338
:1059E800314344F001049AB201810483028470BCFB
:1059F800704700BF838829B923F080031B041B0C60
:105A0800838070479BB243F080038380704700BF58
:105A1800A0F85010704700BF08B5174B984212D035
:105A2800164B98421BD0164B984200D008BD012156
:105A38004FF40040FBF784FF00214FF40040BDE81D
:105A48000840FBF77DBF01214FF48050FBF786FF2C
:105A580000214FF48050BDE80840FBF77FBF0121CB
:105A68004FF48040FBF76CFF00214FF48040BDE805
:105A78000840FBF765BF00BF003001400038004018
:105A8800003C0040F0B44A880F888D88CC880B8988
:105A98004E893A432A4322438D89CC89098A1A437D
:105AA800324303882A43224303F4415313439BB2EE
:105AB8000380838B23F400631B041B0C8383F0BCDB
:105AC80001827047828B8B6822F47B6222F00F027E
